:020000022000DC
:10600000B47B01207DD2020079D20200616C0400D1
:1060100079D2020079D2020079D202000000000099
:1060200000000000000000000000000079D2020023
:1060300079D20200000000009594060079D2020097
:10604000696E020079D2020079900200997A02000A
:10605000A57A020079D20200496C02004D75020057
:10606000417E0200997E0200F17E0200697A020000
:106070004DA1020079D2020079D2020079D2020049
:1060800079D20200797A020079D2020079D2020034
:1060900079D2020079D20200219F060079D2020053
:1060A00079D2020079D20200497F0200A17F02006A
:1060B000C59B0200B19C020000000000000000002F
:1060C00079D20200D59B0200E59B0200A98902005B
:1060D000897A020079D2020079D2020081A50600F5
:1060E00079D2020079D2020079D2020000000000C9
:1060F00000000000F59B0200000000002189020062
:1061000081F0004102E000BF83F0004330B54FEA68
:1061100041044FEA430594EA050F08BF90EA020FD5
:106120001FBF54EA000C55EA020C7FEA645C7FEA68
:10613000655C00F0E2804FEA5454D4EB5555B8BF8B
:106140006D420CDD2C4480EA020281EA030382EAFC
:10615000000083EA010180EA020281EA0303362D8E
:1061600088BF30BD11F0004F4FEA01314FF4801C61
:106170004CEA113102D0404261EB410113F0004F73
:106180004FEA03334CEA133302D0524263EB43032A
:1061900094EA050F00F0A780A4F10104D5F1200EC8
:1061A0000DDB02FA0EFC22FA05F2801841F1000123
:1061B00003FA0EF2801843FA05F359410EE0A5F1F7
:1061C00020050EF1200E012A03FA0EFC28BF4CF028
:1061D000020C43FA05F3C01851EBE37101F00045DE
:1061E00007D54FF0000EDCF1000C7EEB00006EEBEB
:1061F0000101B1F5801F1BD3B1F5001F0CD3490875
:106200005FEA30004FEA3C0C04F101044FEA4452CB
:1062100012F5800F80F09A80BCF1004F08BF5FEA52
:10622000500C50F1000041EB045141EA050130BD32
:106230005FEA4C0C404141EB0101013C28BFB1F544
:10624000801FE9D291F0000F04BF01460020B1FA8F
:1062500081F308BF2033A3F10B03B3F120020CDA62
:106260000C3208DD02F1140CC2F10C0201FA0CF040
:1062700021FA02F10CE002F11402D8BFC2F1200CA5
:1062800001FA02F120FA0CFCDCBF41EA0C0190405B
:10629000E41AA2BF01EB0451294330BD6FEA0404A4
:1062A0001F3C1CDA0C340EDC04F11404C4F120028F
:1062B00020FA04F001FA02F340EA030021FA04F3A1
:1062C00045EA030130BDC4F10C04C4F1200220FAF8
:1062D00002F001FA04F340EA0300294630BD21FA36
:1062E00004F0294630BD94F0000F83F4801306BFFC
:1062F00081F480110134013D4EE77FEA645C18BFF0
:106300007FEA655C29D094EA050F08BF90EA020F86
:1063100005D054EA000C04BF1946104630BD91EA7E
:10632000030F1EBF0021002030BD5FEA545C05D181
:106330004000494128BF41F0004130BD14F58004C0
:106340003CBF01F5801130BD01F0004545F0FE4134
:1063500041F470014FF0000030BD7FEA645C1ABF69
:10636000194610467FEA655C1CBF0B46024650EAA0
:10637000013406BF52EA033591EA030F41F40021CC
:1063800030BD00BF90F0000F04BF0021704730B552
:106390004FF4806404F132044FF000054FF0000127
:1063A00050E700BF90F0000F04BF0021704730B5E8
:1063B0004FF4806404F1320410F0004548BF4042BD
:1063C0004FF000013EE700BF42004FEAE2014FEA12
:1063D00031014FEA02701FBF12F07F4393F07F4FED
:1063E00081F06051704732F07F4208BF704793F0F0
:1063F0007F4F04BF41F40021704730B54FF4607403
:1064000001F0004521F000411CE700BF50EA010205
:1064100008BF704730B54FF000050AE050EA0102AE
:1064200008BF704730B511F0004502D5404261EB1E
:1064300041014FF4806404F132045FEA915C3FF45F
:10644000D8AE4FF003025FEADC0C18BF03325FEAFC
:10645000DC0C18BF033202EBDC02C2F1200300FAAD
:1064600003FC20FA02F001FA03FE40EA0E0021FAD2
:1064700002F11444BDE600BF4FEA4102B2F1E0432D
:1064800024BFB3F5001CDCF1FE5C0DD901F0004C1B
:106490004FEAC0024CEA5070B2F1004F40EB83006B
:1064A00008BF20F00100704711F0804F21D113F197
:1064B0003872BCBF01F00040704741F480114FEAD0
:1064C0005252C2F11802C2F1200C10FA0CF320FA59
:1064D00002F018BF40F001004FEAC1234FEAD32376
:1064E00003FA0CFC40EA0C0023FA02F34FEA4303E0
:1064F000CCE77FEA625307D150EA01331EBF4FF069
:10650000FE4040F44000704701F0004040F0FE4083
:1065100040F40000704700BF53B94AB9002908BFD2
:1065200000281CBF4FF0FF314FF0FF3000F088B95A
:10653000ADF1080C6DE904CE00F01AF8DDF804E0C6
:10654000DDE9022304B07047430803F05533C01A55
:10655000830803F0333300F03330184400EB10109D
:1065600000F00F3000EB002000EB0040000E704701
:106570002DE9F047089D04468E46002B4DD18A42F6
:10658000944669D9B2FA82F252B101FA02F3C2F129
:10659000200120FA01F10CFA02FC41EA030E9440BA
:1065A0004FEA1C48210CBEFBF8F61FFA8CF708FBDB
:1065B00016E341EA034306FB07F199420AD91CEBB3
:1065C000030306F1FF3080F01F81994240F21C81E5
:1065D000023E63445B1AA4B2B3FBF8F008FB10332D
:1065E00044EA034400FB07F7A7420AD91CEB040462
:1065F00000F1FF3380F00A81A74240F20781644432
:10660000023840EA0640E41B00261DB1D4400023B6
:10661000C5E900433146BDE8F0878B4209D9002D1A
:1066200000F0EF800026C5E9000130463146BDE8A4
:10663000F087B3FA83F6002E4AD18B4202D382420E
:1066400000F2F980841A61EB030301209E46002DBD
:10665000E0D0C5E9004EDDE702B9FFDEB2FA82F212
:10666000002A40F09280A1EB0C014FEA1C471FFA70
:106670008CFE0126200CB1FBF7F307FB131140EA57
:1066800001410EFB03F0884208D91CEB010103F124
:10669000FF3802D2884200F2CB804346091AA4B2E6
:1066A000B1FBF7F007FB101144EA01440EFB00FEBA
:1066B000A64508D91CEB040400F1FF3102D2A6451F
:1066C00000F2BB800846A4EB0E0440EA03409CE7BE
:1066D000C6F12007B34022FA07FC4CEA030C20FA6B
:1066E00007F401FA06F31C43F9404FEA1C4900FA8B
:1066F00006F3B1FBF9F8200C1FFA8CFE09FB181108
:1067000040EA014108FB0EF0884202FA06F20BD97A
:106710001CEB010108F1FF3A80F08880884240F2CA
:106720008580A8F102086144091AA4B2B1FBF9F00E
:1067300009FB101144EA014100FB0EFE8E4508D909
:106740001CEB010100F1FF346CD28E456AD902388E
:10675000614440EA0840A0FB0294A1EB0E01A14273
:10676000C846A64656D353D05DB1B3EB080261EBE1
:106770000E0101FA07F722FA06F3F1401F43C5E9BB
:10678000007100263146BDE8F087C2F12003D840F1
:106790000CFA02FC21FA03F3914001434FEA1C4733
:1067A0001FFA8CFEB3FBF7F007FB10360B0C43EA25
:1067B000064300FB0EF69E4204FA02F408D91CEBD5
:1067C000030300F1FF382FD29E422DD902386344D3
:1067D0009B1B89B2B3FBF7F607FB163341EA034173
:1067E00006FB0EF38B4208D91CEB010106F1FF38C2
:1067F00016D28B4214D9023E6144C91A46EA0046B9
:1068000038E72E46284605E70646E3E61846F8E64A
:106810004B45A9D2B9EB020864EB0C0E0138A3E793
:106820004646EAE7204694E74046D1E7D0467BE774
:10683000023B614432E7304609E76444023842E7EC
:10684000704700BFF0B5274C94F85B6083B0002E12
:1068500041D107463022FF2104F124004BF0BDF85E
:1068600020464FF0FF3540F8045B2022FF214BF01B
:10687000B4F8072F84F85450C4F85560A4F8596050
:1068800008D8EC233B41DA0704D5174A7B01DBB279
:1068900082F80633144991F80623EC235209134178
:1068A000DB0706D5114B9A68C2B11A6842F0400264
:1068B0001A600F4B0022C3F87C21D3F87C2101928F
:1068C00001980C484FF000410122C3F8041384F8EA
:1068D0005B2003B0F0BD084803B0F0BD40230B605F
:1068E000E7E700BFD040002000E100E0D84E0020E4
:1068F000006000400000AD0B0500AD0B034B93F8AA
:106900005B00003818BF0120704700BFD040002056
:10691000F0B5434D2B1893F92430002B01DB41488F
:10692000F0BD8E78C6F34006002E0CBF082300236E
:1069300005EB830CACF1040C0CBF4FF0090E4FF0CB
:10694000080E02E001339E453BD95CF8044F013448
:10695000F8D12C1845F823205AB284F8242016B90F
:10696000EC1884F84C008C7866071CD4E40746D4F5
:106970001F284C7887BF2C4F00F01F0606464FF0AB
:10698000A04706F5E076A40047F82640274FC60842
:1069900000F0070E17F806C0012404FA0EF444EACA
:1069A0000C04BC558C78A7070DD4083A45FA82F53B
:1069B0000A7895F854301E4843EA821385F854301B
:1069C000F0BD1C48F0BD9B0003F1804303F5C043BC
:1069D0000978D3F8104524F44F3424F44074C3F8F4
:1069E000104502020904D3F8100501F4403102F405
:1069F0007C520A430243C3F810250D48F0BD1F28FE
:106A000087BF094C00F01F0606464FF0A04404EB78
:106A10008604D4F8006726F00206C4F80067B5E7DC
:106A2000D04000200B00AD0B00030050254100209A
:106A30000000AD0B0200AD0B30B42F4C231882B018
:106A400093F92430072B20DD083B44FA83F393F8B5
:106A500054309B09032B3DD0012B0CBF4FF4003168
:106A60004FF440311F2886BF244A00F01F004FF02A
:106A7000A04202EB8000D0F8003723F440330B43F0
:106A8000C0F8003702B030BC7047DAB2072AF9D834
:106A9000980000F1804000F5C0409200D0F81055F9
:106AA00002F1804202F5C24245F00105C0F81055DE
:106AB0000020106012680192019A0029E2D054F877
:106AC0002320002ADED00E49012202FA03F3C1F886
:106AD0000433D7E71F288ABF084B4FF0A04300F0CC
:106AE0001F01D3F8103598BF0146CB4003F00103D6
:106AF00002331904B6E700BFD04000200003005065
:106B000000600040174B034493F92430072B0FDD3E
:106B10001F288ABF144B4FF0A04300F01F0003EB67
:106B20008000D0F8003723F44033C0F800377047B6
:106B3000DAB2072A14D89A0002F1804202F5C04264
:106B400010B4D2F81005094C012120F0010001FA1F
:106B500003F3C2F81005C4F808335DF8044B70471E
:106B6000704700BFD040002000030050006000408C
:106B700070B50446FFF7C6FF3048031993F9242087
:106B8000D3B2072B41D82E4902F5A272002541F855
:106B9000225000F15502E50804F0070112F805C083
:106BA0002CFA01FC1CF0010F02EBD40224D01F2CA4
:106BB0008BBF04F01F032346224D4FF0A04503F581
:106BC000E073022645F8236001238B40117821EA07
:106BD00003010319117093F824304FF0FF32072B93
:106BE00040F8232003D90344FF2283F84C2020449B
:106BF000FF2380F8243070BD4FF0FF3240F823208F
:106C00002044FF2380F8243070BD00F155024FEA84
:106C1000D40C04F0070112F80CC02CFA01FC1CF093
:106C2000010F02EBD402C2D14FF0FF3240F8232013
:106C30000344FF2283F84C20D9E700BFD040002056
:106C400000600040000300502DE9F04F002216467E
:106C500089B0684B684C6948CDE90222354601226B
:106C6000196841B1D4F80413114204D01D601968A9
:106C7000009100991643043383424FEA4202EFD158
:106C80005D4BD3F87C21002A76D00022C3F87C210A
:106C9000D3F87C3101934FF0A042019BD2F810252C
:106CA000574B0292D3F810250392F3B2002B6AD10E
:106CB0004FF0FF3304ADCDE906330022514C504F65
:106CC00004926A604FF0010894F95430DAB203F08C
:106CD0003F00013354D008AB03EBD00E02F0070C99
:106CE0001EF8083C23FA0CF3DB074FEAD00947D51E
:106CF0002318910993F9243054F82330002B6ED0D7
:106D000003296ED01F288BBFB9464FF0A04902F06F
:106D10001F02024609EB82021EF818ECD2F8006747
:106D20002EFA0CFC1CF0010FC6F3014949D1B9F150
:106D3000030F25D1032949D14FF4003CD2F80017A5
:106D400021F4403141EA0C01C2F800170BB10321D4
:106D500098474FF0A0430299D3F81025D7F8103583
:106D6000914202D1039999420AD004990292059A5C
:106D7000069103930792A7E7F3B233B9002E97DB8E
:106D800009B0BDE8F08F46F000461E4F01250024F3
:106D9000A30003F180432E4203F5C0434FEA4505AB
:106DA0000BD0D3F8100557F82420D3F81015C0F3F2
:106DB0000520C1F3014102B190470134082CE7D10D
:106DC000DCE7B9F1020FDBD1032905D0002BD7D0C6
:106DD00009B0BDE8F04F18474FF4403CAEE7032937
:106DE000CED115F809B008FA0CFA4BEA0A0A05F8F0
:106DF00009A087E70061004000600040206100407A
:106E000000030050D04000200C4B1A78A2B9017842
:106E10004FF080400A4610B4C1F34001084CC0F85E
:106E2000801502F00102C0F878250122216805488A
:106E30005DF8044B1A7070470348704738410020D2
:106E400000E100E00000AD0B0C00AD0B014B02684F
:106E50001A607047344100204FF080434FF4607255
:106E6000C3F80423704700BF10B54FF0804386B0CD
:106E7000D3F80443620703D5D3F80821002A62D16E
:106E8000A30605D54FF08043D3F81421002A4FD133
:106E9000600605D54FF08043D3F81821002A3BD176
:106EA000210604D54FF08043D3F81C214ABBE205EC
:106EB00004D54FF08043D3F82021B2B9A30512D5F1
:106EC0004FF08043D3F824216AB10022C3F8242173
:106ED000D3F82421214B0592059A1B68022006B0A5
:106EE000BDE81040184706B010BD0022C3F82021AD
:106EF0001A4AD3F82031049301201368049A984762
:106F0000DCE70020C3F81C01144AD3F81C310393BA
:106F10001368039A9847CAE70022C3F81821104A59
:106F2000D3F81831029301201368029A9847B7E703
:106F30000020C3F814010A4AD3F8143101931368EE
:106F4000019A9847A4E70022C3F80821054AD3F81C
:106F5000083100931368009A984791E73441002064
:106F6000304100202C4100202DE9F04F95B00DF16B
:106F70000C0C0DF12C0E494D019299467746664650
:106F8000002305EB03120133D2F8184546F8044FED
:106F9000082BD2F81C2547F8042FF2D100274FF018
:106FA000010B3E4CD5F8F065D5F840A6D5F844263F
:106FB000D5F84886C5F8FC7F3B46C5F8FCBF04EB16
:106FC00003155CF8047FC5F8187501335EF8047F7B
:106FD000C5F81C75082BF2D1314D1E9BC4F840A694
:106FE000F6B2C4F84426C4F848861E9AC4F8F06580
:106FF0002B60019BC4F8F015C4F8F4350023C5E9F3
:10700000013385F82400EB84002A42D0C4F8003113
:10701000D4F800210C920C9AC4F81431D4F814213D
:107020000492049AC4F80431D4F80431039323235E
:10703000039AC4F804331B4E184B4FEA096E00251F
:107040004FF0010C1BE0317A96F80080F14603EB1B
:1070500005172A01D7F8184502F1804202F5E042EF
:1070600024F08074013544EA0904082DC7F8184556
:1070700006F10106C2F81415C2F8108506D00CFA04
:1070800005F10140DFD189468846E0E715B0BDE84B
:10709000F08F2323C4F80833CDE700BF0070004011
:1070A0003C4100204E41002088B32DE9F041DFF83B
:1070B000608084B00E4604460127002594FAA4F2AD
:1070C000B2FA82F207FA02F3012E24EA03044FEA2D
:1070D000C2030CBF03F58C7303F58E7303F1804379
:1070E00003F5E04301A8196861B11D601B680093B6
:1070F0008DF80820D8F800308DF804708DF80960FC
:10710000009A9847002CD9D104B0BDE8F0817047AF
:107110003C4100201A4A92F8221009B119487047E0
:1071200010B4194B194C6FF00041C3F8081394F8D0
:107130000713EC2349094FF0010C0B4182F822C0E0
:10714000DA0706D5124B9A68B2B11A6842F080028B
:107150001A6007280CD8EC230341DB0708D543014C
:107160000A4A0C48DBB282F807335DF8044B7047DB
:1071700008485DF8044B704780232360E9E700BFAF
:107180003C4100200500AD0B0070004000E100E034
:10719000D84E00200000AD0B2DE9F04FDFF8ECA039
:1071A0009AF822305A1E012A04D9042B02D0324800
:1071B000BDE8F08F314B4FF0000C8AF823C0CAF8BD
:1071C00012C0C3F804C0C3F808C0C3F80CC000293B
:1071D0004FD090F809900246E6464FF0010B92F826
:1071E000018093781778D478157956794FEA081882
:1071F0001B0208F0300803F4E06348EA030307F0D9
:107200000307240304F480543B432D04234305F473
:10721000E02594792B433605194D06F48016240693
:1072200005EB091504F0807433432343C5F8183582
:107230000AEB0903D4799C740BFA09F90CF1010CDF
:107240005FFA8CFC4EEA090E147A9C765FFA8EFE89
:107250000CEB8C028C4500EB42028AF823E008D24A
:1072600092F809904EFA09F3DB07B8D50548BDE856
:10727000F08F0548BDE8F08F0B00AD0B4E410020AC
:10728000007000400400AD0B0000AD0B3C4100203D
:10729000F0B5204F1E4697F822305C1E012C85B0B9
:1072A00004D9042B02D01C4805B0F0BD97F8233058
:1072B000082400254FF0010C10EA0C0F04D013EA4B
:1072C0000C0F24D00135EDB2013C4FEA4C0CF3D148
:1072D000131E18BF01230096FFF746FE96B10F4B11
:1072E000C3F80C41D3F80C11039108220399C3F899
:1072F00004230B483D82022387F8255087F822306B
:1073000005B0F0BD054B0822C3F80823F1E7054896
:1073100005B0F0BD3C4100200B00AD0B00700040FB
:107320000000AD0B0400AD0B10B4254CA3681BB1DD
:1073300024485DF8044B704700F06043B3F1005FF0
:1073400002461DD194F82500B1FBF0F300FB1313A6
:10735000D3B90BB2002B17DD94F82230052B17D8C8
:10736000032B1CD8022B20D1884283B20CD11649A2
:107370001648C1F82C266260A381C1F83036D8E7E0
:1073800013485DF8044B704712485DF8044B704792
:10739000062B0AD10C4BC3F82C26C3F830166368B1
:1073A0002BB10A48A260E181C3E70B48C1E7064B55
:1073B0000648C3F82C266260A181C3F83016B8E7EE
:1073C0003C4100200C00AD0B007000400000AD0BF4
:1073D0000A00AD0B0600AD0B0500AD0B55494B681F
:1073E000002B00F09E8070B491F82230042B87B0FF
:1073F0000BD0062B05D0022B15D04F4807B070BC20
:1074000070470B68002BF8D12BE04C4B0868012229
:10741000C3F80025B0B14A48052481F822401A601B
:1074200007B070BC7047454A08680123C2F80035B0
:10743000002846D04248032481F82240136007B058
:1074400070BC7047062081F822001A60D3F8002132
:10745000002AFBD00022C3F80021D3F800310293A8
:10746000029B0C8A8CB10020344A012605465660E6
:10747000D2F80831002BFBD0C2F80851D2F80831FD
:1074800005930130A042059BF1D12C4BD3F8042188
:10749000002A48D00020C3F80401D3F804418A68C8
:1074A0000394039C8860CC894A60042081F8220000
:1074B0008C81002A39D0C3F82C262148C3F83046E5
:1074C0009CE71360D2F80031002BFBD00023C2F8F8
:1074D0000031D2F80021088A0092009A88B1174A38
:1074E000194601251C465560D2F80831002BFBD007
:1074F000C2F80841D2F80831049301318142049B5B
:10750000F1D10E4AD2F80431002BFBD00023C2F88F
:107510000431D2F80411019101990948C2F80035EB
:107520006CE708487047084868E70548C3F8002535
:1075300064E700BF3C4100200500AD0B0070004037
:107540000000AD0B0200AD0B0B00AD0B70B55F4D35
:107550005F4CD5F800318AB0002B4AD15B4BD3F891
:107560000C216AB10022C3F80C2194F82220D3F830
:107570000C110391032A08BF0122039908BF5A6026
:10758000524BD3F8142152B10022C3F81421D3F87E
:10759000141104910499D3F83436A381A2604B4DA1
:1075A000D5F80431002B36D194F82600474D002140
:1075B000FFF77AFD94F827000121FFF775FDD5F854
:1075C0001031A3B10026C5F81061D5F8102106923C
:1075D0000123022284F822308DF81C202368069AA9
:1075E00007A898471023C5F80833C5F800650AB006
:1075F00070BD0023C5F8003194F82230D5F8002181
:107600000292052B029A38D0062B2FD0032BA5D13E
:1076100001236B60A2E70026C5F80461D5F80421B8
:10762000636805920893A389ADF824308DF81C6037
:10763000059B236807A8984794F82230032B0FD0A6
:10764000062BB1D1A368E289A281C4E90136002BDF
:107650002FD094F82830002BA6D001232B60A3E76D
:107660000223C5F8006584F822309DE707A80322AD
:1076700023688DF81C20984770E7042207A8236828
:107680008DF81C2001909847D5F8F835019813F42F
:10769000805F1CBF01236B60A368062284F8222050
:1076A000002BE4D0094AE189C2F82C36C2F8301622
:1076B000DDE704210522C5F8003507A8236884F812
:1076C00022108DF81C2098476EE700BF0070004024
:1076D0003C4100202DE9F04F0024DFF8A4B085B034
:1076E00007468A46904600F5A0764FF48035A146BD
:1076F000D7F804332B420ED03368E0B25BB1C7F841
:107700004853C7F80853C6F80090336801935BF8F4
:107710002A30019A98470134A0454FEA450506F101
:107720000406E5D1D7F80433DA0702D5D7F80031DB
:10773000C3B9D7F804339B0711D5D7F8043173B117
:107740000023C7F80431D7F804210D4B0392039AA4
:1077500053F82A30052005B0BDE8F04F184705B0B2
:10776000BDE8F08F0023C7F80031054BD7F80021A2
:10777000029253F82A30029A04209847D9E700BFB2
:1077800074410020F0B53D4C437944F823203C4A35
:1077900003EB4304145D0CB13A48F0BD90F904E0EA
:1077A0008C78BEF11F0F4FEA430C38DD072C0CD844
:1077B000EC252541ED0708D50EF16045640105F57E
:1077C0006145E4B285F8004303E00EF1604505F53C
:1077D000614595F800436409EC2545FA04F4E70790
:1077E0000FD5294CA568002D39D04FEA5E1601252A
:1077F00054F826700EF01F0E05FA0EF53D4344F8BE
:10780000265000680D88C0F808556344D4180879DC
:1078100060700120C978D054A1701C48F0BD1C4D87
:1078200025FA0EF5ED07ECD5072C10D8EC252541EF
:10783000EE070CD5BEF1000FBEDA164D0EF00F06A6
:1078400064013544E4B22C762C7E6409C4E7BEF1B1
:10785000000FBADA0F4D0EF00F042544F4E7BEF125
:10786000000FCEDB4FEA5E160B4D0EF01F0E01240B
:1078700004FA0EF445F82640C3E700BF7441002027
:10788000684100200500AD0BD84E00200000AD0B74
:10789000FC06FFBDFCEC00E000E100E090F90430E4
:1078A0001F2B10B51FDD1C4A916821B34FEA531EF0
:1078B0004FF0010C52F82E1003F01F030CFA03F3E3
:1078C00021EA030342F82E300368144A012159606B
:1078D000C3F84823C3F808234379114A03EB430351
:1078E0000021D15410BD0F4ADA40D207ECD50A4A24
:1078F00091680029DAD1002BE6DB5A090A4C0121F4
:10790000203203F01F0301FA03F344F82230BFF3DF
:107910004F8FBFF36F8FD7E7D84E002003000F00C3
:1079200068410020FC06FFBD00E100E010B443798F
:10793000054C026803EB430301210220E05411606F
:107940005DF8044B704700BF68410020437901682F
:1079500010B403EB4303034C0122E2544A605DF888
:10796000044B70476841002002684FF480338B401D
:10797000C2F84833D2F80403034206D050318900DC
:1079800089B2C2F8083353580BB905487047002331
:10799000535082B0535801930248019B02B0704784
:1079A0000000AD0B0700AD0BF0B590F805C0214FFE
:1079B00004680CEB4C0038444FF4803546788D4019
:1079C000C4F8485383B022F07F42C4F80853E6B1AC
:1079D00001F5A8764FEA4C0044F826208444D4F8F8
:1079E0000465BC44A6EB020EB24288BF0EF1FF1E36
:1079F0009CF8022088BF0EF57F4E724516DC53B905
:107A00000D48C4F8445303B0F0BD01F5A87044F824
:107A10002020002BF4D05031890089B2002363501C
:107A200063580193019BC4F80453E9E7034803B08A
:107A3000F0BD00BF684100200000AD0B0700AD0B9A
:107A400010B403680024C3F8044183B0D3F80401E0
:107A5000019002220198C3F8442309B1C3F804231A
:107A600003B05DF8044B7047024803220021FFF782
:107A700031BE00BF00B00040024804220121FFF7E0
:107A800029BE00BF00100140024804220221FFF776
:107A900021BE00BF00400240014B1B68184700BFD9
:107AA00080410020014B1B68184700BF884100201F
:107AB000244B984241D0B0F1402F40D1224AF0B43B
:107AC000EFF3108572B6214B9C68002C30D1204812
:107AD000204F01269E60D0F880603E401E60C0F8B6
:107AE0008070D0F884605E604FF0FF36C0F884602C
:107AF00005B962B6107938B91160012111719A681F
:107B0000C2B91548F0BC70479A6872B16CB9EFF30E
:107B1000108172B60E4A1C6814605C6854600022C2
:107B20009A6001B962B60028EBD00C48F0BC7047EF
:107B30000124DDE7002CE4D1E9E7094ABFE7064864
:107B4000704700BF0030004088410020D84E002020
:107B500000E100E0FC06FFBD0000AD0B0B00AD0B2B
:107B600080410020064B984207D0B0F1402F03D14E
:107B7000044A0023136013717047034AF9E700BFFA
:107B8000003000408841002080410020F0B590F88E
:107B900004C0534E0CEB4C0306EB830783B03C7AD6
:107BA000002C40F088809B000568F2504B687B6099
:107BB00040794FEA4C0E70B10138C3B205F5A2709E
:107BC00000EB830005F5A0731C6053F8042B0192B1
:107BD0009842019AF8D145F307331F2BCA784FEA30
:107BE00015300EDD072A4CD8EC241441E70748D5A0
:107BF00003F16044520104F56144D2B284F80023D9
:107C000043E0384CDC40E40715D5072A61D8EC2462
:107C10001441E4075DD5002BEADA334C00F00F077E
:107C200052013C44D2B22276227EEC24520944FA1C
:107C300002F2D20731D4D5F804254B782B4822F034
:107C4000030203F003031343C5F80435D5F80825F0
:107C50008B7822F0030203F003031343C5F80835C1
:107C60000B78D5F81025F44406EB8C0622F00F02B1
:107C700003F00F03012413433472C5F8103503B029
:107C8000F0BD03F1604404F5614494F80023EC2452
:107C9000520944FA02F2D207CDD5154A94686CB95C
:107CA000002BC8DB134C5B0900F01F00012282404F
:107CB00044F82320BFE7104803B0F0BD5B0900F093
:107CC0001F0752F823400120B840204342F8230008
:107CD000B1E7002BD5DA044C00F00F021444A3E7FF
:107CE00090410020FC06FFBDFCEC00E00000AD0B65
:107CF000D84E002000E100E00500AD0B036843F31F
:107D000007321F2A30B44FEA133123DD1E4CA56819
:107D100045B3520901F01F0154F822504FF0010CF5
:107D20000CFA01F125EA010144F8221000244FF079
:107D3000FF32D3F80012C3F80042C3F808230279D7
:107D4000124902EB420201EB820201211961147215
:107D500030BC70470E4CD440E407E7D50A4CA56808
:107D6000002DD6D1002AE1DB52090A4C0123203232
:107D700001F01F0103FA01F144F82210BFF34F8F05
:107D8000BFF36F8F0368D1E7D84E002090410020E9
:107D9000FC06FFBD00E100E00379054A016803EB42
:107DA000430302EB83030120022208601A7270472A
:107DB000904100200379054A016803EB430302EB7D
:107DC000830301220A611A72704700BF90410020AC
:107DD0008B0040330268DBB20120D05001F5A8715E
:107DE00052F82100704700BF006830B440F2011C17
:107DF000D0F800420CFA01FC24EA0C04C0F800425E
:107E0000D0F8004282B023439DF81050C0F80032F1
:107E10004FF480338B4085B18C0004F5A0740025AD
:107E2000055104590194019CC0F8043301F5A8716F
:107E300040F8212002B030BC7047C0F80833F5E7A5
:107E40002DE9F041114D124FDFF8488082B0002437
:107E50004FF480362B6806FA04F201347BB1D7F870
:107E60000433A5F500401A424FF0000180B206D05D
:107E700029602B680193D8E90031019A9847042CB6
:107E800005F10405E6D102B0BDE8F0814081004073
:107E900000800040904100202DE9F041114D124F2B
:107EA000DFF8488082B000244FF480362B6806FA51
:107EB00004F201347BB1D7F8043305F5E0401A42EF
:107EC0004FF0000180B206D029602B680193D8E9F9
:107ED0000331019A9847042C05F10405E6D102B05C
:107EE000BDE8F081409100400090004090410020AA
:107EF0002DE9F041114D124FDFF8488082B0002487
:107F00004FF480362B6806FA04F201347BB1D7F8BF
:107F1000043305F5C0401A424FF0000180B206D08C
:107F200029602B680193D8E90631019A9847042CFF
:107F300005F10405E6D102B0BDE8F08140A10040A2
:107F400000A00040904100202DE9F041114D124F5A
:107F5000DFF8488082B000244FF480362B6806FAA0
:107F600004F201347BB1D7F8043305F5C0401A425E
:107F70004FF0000180B206D029602B680193D8E948
:107F80000931019A9847062C05F10405E6D102B0A3
:107F9000BDE8F08140A1014000A0014090410020D7
:107FA0002DE9F041114D124FDFF8488082B00024D6
:107FB0004FF480362B6806FA04F201347BB1D7F80F
:107FC000043305F5A0401A424FF0000180B206D0FC
:107FD00029602B680193D8E90C31019A9847062C47
:107FE00005F10405E6D102B0BDE8F08140B10140E1
:107FF00000B001409041002070B491F82F308BB058
:10800000B3B9D0F824214C6B8D6A002A34D0C0F863
:108010002431D0F8243104930123049A436181F878
:108020002F30AC4217D0012318460BB070BC7047FC
:108030000023C0F82431D0F824210392039AC0F819
:108040001C31D0F81C210292029AC0F80831D0F8F5
:1080500008310193019BD0F80431002BE3D00023B9
:10806000C0F80431D0F804210992099A81F82D3022
:1080700018460BB070BC7047D0F81C61A6B1C0F8B0
:108080001C21D0F81C610596059ED0F82461002EB5
:1080900034D0C0F82421D0F8243106930123069A65
:1080A000436181F82F30BCE7D0F80821002AB8D00E
:1080B000C0F80861D0F808210792079AD0F8242167
:1080C00052B1C0F82461D0F8243108930123089AF2
:1080D000436181F82F30A4E7AC42A2D24A6AD0F8BB
:1080E000185515554A6B8C6A0132651EAA424A63BF
:1080F0001ED0A24223D00123036294E7AC4206D2F1
:108100004A6A631C125DC0F81C254B638BE791F82B
:108110002C202AB90A6A560605D40123436180E758
:108120000122C26180E70122C26181F82D207BE734
:108130000D6A6D060BD40223C0F80032DBE70A6A31
:1081400052067FF570AF022281F82D206CE7A24223
:10815000D1D1F8E710B586B0002342F21072019237
:10816000C0F80431D0F804210592059AC0F82431F2
:10817000D0F824210492049AC0F81C31D0F81C21B4
:108180000392039AC0F808318A6A0446D0F80801BD
:108190000290012A02984B6381F82F3038D00123D6
:1081A000C4F800320123236291F82D20022A18BF5F
:1081B00023600B6843B140F286238B608B682048B4
:1081C000C4F8043306B010BD019B002B06DC12E09E
:1081D000019B013B0193019B002B04DD2046FFF72F
:1081E0000BFF0028F4D191F82F3023B1D4F8C43418
:1081F000C4F8C4349BB91248019B002BE2DC11483F
:1082000000220523C4F80025C4F8003506B010BDCF
:108210000B6A5B06C3D40223C4F80032C2E70A49E2
:108220000A4A084813F0010F18BF084613F0020F5E
:1082300018BF1046013213F0040F18BF1046DBE7D9
:108240000000AD0B0100AD0B0000AE0B0100AE0B4A
:1082500010B586B0002342F210720192C0F80431CA
:10826000D0F804210592059AC0F82431D0F82421D1
:108270000492049AC0F81C31D0F81C210392039A8E
:10828000C0F80831D0F80821029204460122029871
:10829000C4F800324B6381F82F30226291F82D3000
:1082A00093428B6A18BFA26083B14A6A0123127895
:1082B000C4F81C254B630B68CBB140F286238B605E
:1082C0008B682748C4F8043306B010BD91F82C30F1
:1082D000002B30D10B6A13F0400F4FF0010316BF93
:1082E000E361636181F82D300B68002BE5D1019BC0
:1082F000002B06DC12E0019B013B0193019B002B4C
:1083000004DD2046FFF778FE0028F4D191F82F30E5
:1083100023B1D4F8C434C4F8C4347BB91048019BE9
:10832000002BD1DC0F4800220523C4F80025C4F837
:10833000003506B010BD0123E361BCE70A490B4AD2
:10834000084813F0010F18BF084613F0020F18BFBA
:108350001046013213F0040F18BF1046DFE700BFCC
:108360000000AD0B0100AD0B0000AE0B0100AE0B29
:1083700070B591F82F3086B08C46002B30D10A7B37
:10838000941E012C16D900230CF10C058DF8003039
:108390000FCD01AC0FC42B682360DCF82030002225
:1083A0008CF830205A0703D4DCE90031684698473E
:1083B00006B070BD4D6A8C69A542E4D181F82D30BC
:1083C0000B6AC3F3401381F82C30CB694B62032A4C
:1083D0004B698B6222D006B0BDE87040FFF7BABE91
:1083E00001F10C05D0F8C46486460FCD01AC0FC472
:1083F0002B682360B307CEF8C46403D501238DF83E
:108400000030CAE7700703D502238DF80030C4E7B7
:10841000F10744BF03238DF80030BEE706B0BDE886
:108420007040FFF715BF00BF08B506494FF0402068
:10843000FFF7E2FD28B9BDE808404FF04020FFF704
:1084400097BF08BD0842002008B505490548FFF759
:10845000D3FD20B9BDE808400248FFF789BF08BD39
:10846000CC410020003000402DE9F04F04799A46BD
:10847000634BC4EB041603EB860983B099F82EB066
:10848000904622010192BBF1000F03D05D4803B07A
:10849000BDE8F08F0F465C49054651F8241000688E
:1084A000FFF706FB594988427DD1D7F800C0544BED
:1084B000797B89F83810B600BCF11F0F8CBF0CF027
:1084C0001F01614643F806807E6888BFDFF854E1EB
:1084D000C9F808B098BF4FF0A04E01F5E07189F8D7
:1084E00030B01F2EC9F804A089F82DB089F831B03A
:1084F00040F20C694EF821908CBF06F01F0EB64674
:10850000296888BFDFF81C91019A0EF5E07598BFC5
:108510004FF0A049D7F808E040F20C6A49F825A0CE
:10852000C1F808C5C1F80C65C1F824E5B8F1000F21
:1085300030D041F307351F2D3E7B4FEA113142DD2C
:10854000072E0CD8EC273741FF0708D505F1604707
:10855000760107F56147F6B287F8006303E005F19D
:10856000604707F5614797F800637609EC2747FAFB
:1085700006F6F6070ED5264EB768C7B16D0901F0AD
:108580001F0156F825C0012707FA01F141EA0C0145
:1085900046F82510121B03EB8203012283F82E20DC
:1085A00003B0BDE8F08F1B4803B0BDE8F08F002D8D
:1085B000F0DB194F6D0901F01F01012606FA01F1E8
:1085C00047F82510E6E7154FEF40FF07E2D5072EE5
:1085D0000FD8EC273741FF070BD5002DB6DA104F27
:1085E00001F00F0C76016744F6B23E763E7E7609C6
:1085F000BCE7002DB3DA0A4F01F00F063744F5E768
:10860000CC4100200500AD0B285408000000AD0B44
:10861000D84E00200B00AD0B00E100E0FC06FFBDD2
:10862000FCEC00E000030050F8B505793D4CC5EBCB
:108630000513064654F8233000682F01F3B140F3C8
:1086400007331F2B4FEA103214DD3749D1F808C029
:10865000BCF1000F52D05B0902F01F0251F823C099
:108660004FF0010E0EFA02F22CEA020241F823202A
:108670002B4604E02D49D940C907E6D42B462C4AA5
:10868000C0F80823D0F80022C3EB031322F0030242
:1086900004EB8303C0F800220022C0F80025012269
:1086A00083F82E20FFF75EFA7B1B04EB830393F81D
:1086B0003830E3B93268D2F808351F2B86BF03F093
:1086C0001F031C494FF0A04103F5E073022041F85D
:1086D0002300D2F80C351F2B86BF03F01F03154A69
:1086E0004FF0A04203F5E073022142F823107D1BF6
:1086F00004EB8504002384F82E30F8BD002BBDDB8D
:108700005B090D482033012102F01F0201FA02F239
:1087100040F82320BFF34F8FBFF36F8F337930685A
:10872000ADE700BFCC410020D84E0020FC06FFBDC5
:10873000864204000003005000E100E00379064A8D
:108740000168C3EB031302EB830305200222C1F887
:10875000000583F82E207047CC41002010B4036838
:1087600002790C4CC3F808430B49D3F800025DF8BA
:10877000044BC2EB021201EB82024FF0010C20F01D
:1087800003010020C3F8001282F82EC0C3F80005D0
:10879000704700BF86420400CC4100202DE9F84F0D
:1087A0000479394FD0F800A0C4EB041307EB83031E
:1087B0008C4693F82D30012B16464FEA04154DD008
:1087C000022B43D0A5EB040E304BCAF8083307EB5D
:1087D0008E0E9EF83030002B49D186F00403C3F38F
:1087E00080038EF83030CEF82060E146B9E80F0003
:1087F0000EF10C08A8E80F00D9F80030C8F80030D6
:10880000DCF80430CEF82830DCF80C30CEF8243018
:108810009CF80130CAF888359CF80030C4EB041B82
:10882000012B07EB8B0B29D0B3B9C6F340162B1BDA
:1088300007EB83035946504683F82C60FFF708FD89
:108840002D1BAD007B596BB1BDE8F88F0B78012B68
:10885000B8D00F48BDE8F88F0126E8E70B78012B68
:10886000B0D1F6E73D4485F83030BDE8F88FDEF84A
:1088700008300848CAF80433BDE8F88F5946504616
:10888000FFF768FCDCE700BFCC4100208642040013
:108890000500AD0B0B00AD0B4FF04023D3F81821B2
:1088A00002B9704710B400211A4AC3F81811D3F85E
:1088B000181192F8433083B0FF2B019101990ED02B
:1088C00092F84210C1B11F2B8ABF13484FF0A0404D
:1088D00003F01F03012101FA03F3C0F80C35D2E9BC
:1088E000094100230D4882F8413082F82C3023469C
:1088F00003B05DF8044B18471F2B8ABF06484FF0A2
:10890000A04003F01F03012101FA03F3C0F808356A
:10891000E5E700BF44420020000300507042002001
:108920001D4BD3F8182102B9704710B400211B4A1F
:10893000C3F81811D3F8181192F88B3083B0FF2BBD
:10894000019101990ED092F88A10C1B11F2B8ABFF4
:1089500013484FF0A04003F01F03012101FA03F375
:10896000C0F80C35D2E91B4100230E4882F889304B
:1089700082F87430234603B05DF8044B18471F2B70
:108980008ABF07484FF0A04003F01F03012101FAFE
:1089900003F3C0F80835E5E700F002404442002048
:1089A00000030050B84200201D4BD3F8182102B933
:1089B000704710B400211B4AC3F81811D3F81811DE
:1089C00092F8673083B0FF2B019101990ED092F895
:1089D0006610C1B11F2B8ABF13484FF0A04003F0AF
:1089E0001F03012101FA03F3C0F80C35D2E912414B
:1089F00000230E4882F8653082F85030234603B0D9
:108A00005DF8044B18471F2B8ABF07484FF0A04062
:108A100003F01F03012101FA03F3C0F80835E5E76D
:108A200000300240444200200003005094420020E5
:108A30001B4BD3F8182102B9704710B40021194A12
:108A4000C3F81811D3F81811D37F83B0FF2B01910D
:108A500001990DD0917FB1B11F2B8ABF12484FF001
:108A6000A04003F01F03012101FA03F3C0F80C3505
:108A7000D2E9004100230D4853771372234603B017
:108A80005DF8044B18471F2B8ABF07484FF0A040E2
:108A900003F01F03012101FA03F3C0F80835E7E7EB
:108AA0000030004044420020000300504C420020AF
:108AB0002DE9F04F0579DFF800A305EBC5079046D7
:108AC0000AEB870285B09946137F00921BB1B1482B
:108AD00005B0BDE8F08F036801930C46AE49064629
:108AE00051F825101846FEF7E3FFAC49884240F0E4
:108AF000CD80BF00009A4AF80780C2F80490237B1B
:108B00000093012B2278019B4FEAC50B40F2C280F3
:108B10001F2A87BFDFF888C202F01F0E96464FF06B
:108B2000A04C012101FA0EF1CCF808151F2A8BBFC9
:108B300002F01F011146DFF868C24FF0A04C01F5AA
:108B4000E0714FF0010E4CF821E06178FF2900F050
:108B5000D9801F29894687BFDFF844C201F01F0171
:108B600049464FF0A04C4FF0010E0EFA01FE01F500
:108B7000E071CCF80CE54FF0030E4CF821E0A17841
:108B8000FF2900F0BB801F2994F80EC088BF844FD6
:108B900001918EBF01F01F0E8E464FF0A0470EF5DB
:108BA000E07E4FEA8C0C47F82EC00BEB050C0AEB6D
:108BB0008C0C8CF82010E1788CF81F10FF292AD03B
:108BC0002779CDE90217002F00F09F801F2987BF6A
:108BD000734F01F01F0E8E464FF0A0474FF0010C6F
:108BE0000CFA0EFCC7F80CC51F2984BF01F01F0149
:108BF0000291029988BFDFF8A8E1039F01F5E07CAC
:108C00000BEB05010AEB810198BF4FF0A04E8F7767
:108C100003214EF82C10C3F80825019AC3F80C95CF
:108C2000C3F81025A268C3F82425627B0099003A96
:108C300018BF0122022900F0818003297BD001297D
:108C400076D0C3F85425A279C3F8C025B8F1000F37
:108C50006AD032684021C3F804130721C3F8001515
:108C600042F307311F2963794FEA123275DD072B72
:108C70001FD8EC241C41E4071BD501F160445B01C3
:108C800004F56144DBB284F8003316E0454805B0D2
:108C9000BDE8F08F1F2A87BFDFF804C102F01F0E66
:108CA00096464FF0A04C012101FA0EF1CCF80C15BC
:108CB0003CE701F1604404F5614494F800335B093A
:108CC000EC2444FA03F3DF070CD5374B9C68C4BB94
:108CD000002907DB354C490902F01F0201239340AC
:108CE00044F821305D440AEB850A002201238AF80A
:108CF0001D208AF81C3005B0BDE8F08F4FF0FF371B
:108D0000019752E74FF0FF3939E71F2987BF244FFA
:108D100001F01F0E8E464FF0A0474FF0010C0CFAE9
:108D20000EFCC7F808C55FE70722C3F80025D9E79E
:108D300042F0020285E742F0060282E742F00402B6
:108D40007FE7490902F01F0253F82160012404FA69
:108D500002F2324343F82120C4E7154CCC40E4072B
:108D6000C0D5072B0FD8EC241C41E6070BD50029F2
:108D700083DA104C02F00F065B013444DBB2237639
:108D8000237E5B099CE7002993DA0A4C02F00F036B
:108D90001C44F5E70500AD0B305408000000AD0B96
:108DA000000300500B00AD0BD84E002000E100E0A6
:108DB000FC06FFBDFCEC00E044420020F8B504795D
:108DC0003C4D04EBC402034655F822200068E6003F
:108DD0005AB340F307321F2A4FEA103149DD364FAC
:108DE000D7F808C0BCF1000F4DD0520901F01F01A7
:108DF00057F822304FF0010C0CFA01F123EA01017F
:108E000047F822102D4BC0F80833331905EB8303C4
:108E10005B7F53B101234361D0F80431002BFBD0B9
:108E2000331905EB830300225A77331905EB8303CB
:108E300093F82030FF2B0BD01F2B86BF03F01F03AE
:108E40001F494FF0A04103F5E073022241F82320AF
:108E50000023C0F800351B4B984208BF012334445F
:108E600008BF436005EB8405FEF77CFE00232B77EB
:108E7000F8BD154FD740FF07C4D50F4FD7F808C02E
:108E8000BCF1000FB1D1002ABCDB52090F4F2032D8
:108E9000012001F01F0100FA01F147F82210BFF391
:108EA0004F8FBFF36F8F3219186855F82230002B9F
:108EB000A8D1BAE744420020D84E00205201080051
:108EC0000003005000F00240FC06FFBD00E100E09E
:108ED0002DE9F04F0479634F04EBC403964607EB8A
:108EE00083028C46517F83B0002940F0A4809B0010
:108EF000064657F803904FEAC408B9F1000F04D0B2
:108F00001EF0140F04BF0123537708EB040507EB91
:108F100085059CE80F0095F81FA005F10C0BBAF130
:108F2000FF0F8BE80F000FD0AB7F002B59D0BAF1A9
:108F30001F0F8DBF4C4A51464FF0A0420AF01F014F
:108F400001238B40C2F80835DCF800206AB102F03A
:108F50006043B3F1005F08D0444407EB840700236B
:108F600042487B7703B0BDE8F08FDCF8081021B1F0
:108F700001F06043B3F1005FEED13368DCF8040028
:108F8000C3F84425DCF80C20C3F84805C3F83415B1
:108F9000C3F838250022C3F81821D3F8182101920C
:108FA000019A1EF0010218BF0122C3F850251EF0DD
:108FB000020218BF01221EF0080FC3F8402504BFAB
:108FC00001221A61B9F1000F19D0294840221EF080
:108FD000040F14BFC3F80823C3F8042303B0BDE88B
:108FE000F08FBAF11F0F8DBF1F4A51464FF0A042BC
:108FF0000AF01F0101238B40C2F80C35A4E7D3F817
:109000001821002AFBD0BAF1FF0F28D0444407EB07
:109010008407BB7F9BB1BAF11F0F88BF124A144867
:1090200094BF4FF0A0420AF01F0A012303FA0AF38B
:10903000C2F80C3596E70F4803B0BDE8F08FBAF1DF
:109040001F0F88BF084A0A4894BF4FF0A0420AF099
:109050001F0A012303FA0AF3C2F8083582E704481D
:1090600080E700BF44420020000300500A00AD0B1F
:109070000000AD0B0B00AD0B70B56E4AD2F8043397
:1090800099058AB067D5D2F82431002B63D000212E
:10909000694BC2F82411D2F8240193F829100190E9
:1090A0004FF40170019CC2F8080309B90121516015
:1090B00060489E69DD685C6802228DF81820D0F84F
:1090C0008014C0F8801400220991CDE90756C3E945
:1090D0000622196806A8A047564AD2F81C31C3B127
:1090E000554B5869196A88426AD993F8281001F0DB
:1090F000FF00002964D1C2F81C01D2F81C110391B1
:1091000003999C68186A196A205C01311962C2F8D7
:109110001C05484AD2F84431DBB10021464BC2F865
:109120004411D2F8440193F829100090009809B135
:10913000012111609A6962B1D8685C6A002101223C
:10914000CDE9070499618DF8182006A8D3E900122B
:1091500090470AB070BD374AD2F804335B07BBD5DD
:10916000D2F80831002BB7D0334B996900293ED093
:109170000021C2F80811D2F8081104910499D868A6
:10918000596AD2F8182542545A6A996901325A62CA
:109190005A6A8A42A0D1DA69002A31D0D8685C6A5A
:1091A0001D699A61002101220894D96159620790D2
:1091B0005C681968DD608DF8182006A8A0478BE769
:1091C0001C4A0020C2F81C01D2F81C210292029A0B
:1091D0005A69002A9DD0D3E901215C698DF81800F5
:1091E000CDE907145861196806A8904791E7C2F8BD
:1091F0000811D2F8080105900598D2F81825C7E79C
:1092000093F8292012B90B4A01215160094AD86804
:109210004FF40171C2F808135C6A00210122CDE904
:10922000070499618DF8182006A8D3E90012904729
:1092300052E700BF00200040D44200202DE9F04159
:10924000864E07792C2303FB076382B093F82A30FC
:109250001BB1834802B0BDE8F08104460D460068AA
:1092600080499046FEF724FC7F4B984203D07F480C
:1092700002B0BDE8F081296823684C1C11D01F2979
:1092800087BFDFF8F4C101F01F020A464FF0A04C7F
:109290000124944002F5E072CCF8084503244CF810
:1092A00022406C68621C0ED01F2C8BBF04F01F0282
:1092B0002246DFF8C4C14FF0A04C02F5E0724FF037
:1092C000000E4CF822E06A69C3F8242595F81BC00B
:1092D000AA7E42EA0C0295F819C04CEA0202BCF1DF
:1092E000010FC3F86C25C3F81445C3F80C1558D00A
:1092F0002C2207FB02F2B118C1F804802969B15091
:10930000B8F1000F3BD00022297EC3F81C21D3F80E
:109310001C410094009CC3F84421D3F844210192DD
:10932000019A534AC3F8042343F307321F2A4FEA32
:10933000133569DD072962D8EC240C41E4075ED5BA
:10934000490102F1604404F56144C9B284F8001394
:1093500094F800134909EC2444FA01F1C9070ED529
:1093600044498C68002C6DD0520905F01F0C012473
:1093700051F8225004FA0CF42C4341F82240042204
:10938000C3F800252C2303FB076601220023C6E94E
:10939000063386F82930736186F82A2002B0BDE8CA
:1093A000F081AA68511C0DD01F2A8BBF02F01F014B
:1093B0001146314C4FF0A04401F5E0714FF0000C24
:1093C00044F821C0E9684C1C14D01F2987BFDFF87E
:1093D000A8E001F01F040C464FF0A04E4FF0010C26
:1093E0000CFA04FC04F5E074CEF808C54FF0030C49
:1093F0004EF824C0C3F80815C3F8102578E702F129
:10940000604404F56144A3E71C4CD440E407B6D59E
:10941000072910D8EC240C41E4070CD5002A4FEAA8
:1094200041118EDACCB2164905F00F0C61440C766E
:10943000097E49098FE7002AE1DA114905F00F0496
:109440002144F5E7002A9ADB0E4C520905F01F056E
:109450000121A94044F8221091E700BFD442002026
:109460000500AD0B799002000000AD0B0B00AD0BB9
:1094700080000200D84E002000030050FC06FFBD13
:10948000FCEC00E000E100E0F0B42E4D90F804C0E8
:109490002C2303FB0C5384B05C69002C4BD15A6124
:1094A00002681C6283F82840C2F81C41D2F81C01F3
:1094B00002900298996001209060C2F81C41D2F895
:1094C0001C0101900198186A0C5C186A013018623E
:1094D000C2F81C455C681CB11B4804B0F0BC704766
:1094E0005E69186AB04203D316E093F8280030BBD7
:1094F000D2F81C010028F8D0C2F81C41D2F81C0197
:1095000003900398186A0F5C186A01301862C2F859
:109510001C75186A8642EBD8D2F81C31002BFBD0A0
:1095200001230948D3602C2303FB0C5500236B61F6
:1095300004B0F0BC7047054804B0F0BC7047044864
:10954000F1E700BFD44200200000AD0B0B00AD0BD3
:109550000800AD0B0279044B2C2101FB0233586942
:10956000003818BF01207047D442002070B44F4E1D
:1095700090F804C02C2303FB0C6387B05C6824B113
:1095800003684FF40175C3F808532C2303FB0C63E5
:109590009D6975B1DD69002D77D11961DA610368C4
:1095A0000CB34FF401724248C3F8042307B070BCF7
:1095B00070479A61D9605D62DD6193F82930002BB4
:1095C000EDD10268C2F82431D2F824110291029937
:1095D000C2F80831D2F808310393039B01231360CA
:1095E0000368002CDDD1C3F84441D3F84421019233
:1095F00001992C2202FB0C62D3F82441D3F80851C4
:10960000D3F8441155B9002936D1002CF4D02C23BD
:1096100003FB0C6600232748B361C7E7002CF6D193
:1096200061BB94699CB1C3F80811D3F80811049187
:109630000499D468516AD3F818356354536A916910
:1096400001335362536A99420368D5D808E0C3F8DE
:109650000841D3F8081105910599D3F81815526AF5
:109660002C2202FB0C66002196F82920B161B2B1D0
:1096700001220F481A6099E7002CC8D12C2303FB64
:109680000C6600230C48B36190E764B103680B4893
:109690004FF40172C3F8042307B070BC7047012275
:1096A00003485A6082E7054880E700BFD4420020A3
:1096B0000000AD0B0100AD0B0800AD0B0B00AD0BB6
:1096C00002790F4B2C2101FB023393F8292002B1C0
:1096D000704710B4016883B0C1F82421D1F8244147
:1096E0000094009CC1F80821D1F808210192019A48
:1096F0000120086083F8290003B05DF8044B70472F
:10970000D442002030B5D0F8103185B004460D4663
:109710004BB10023C0F81031D0F810214B7A0092E1
:10972000009A5A073DD4D4F814314BB10023C4F841
:1097300014316B7AD4F8142101921B07019A29D4B1
:10974000D4F81C3153B10023C4F81C31687AD4F822
:109750001C31029310F01000029B15D0D4F8043194
:1097600083B10023C4F80431D4F804212B68039298
:10977000012203992A722BB16968032005B0BDE864
:109780003040184705B030BD2B68002BE6D0696823
:109790009847E3E72B68002BD2D0696802209847EE
:1097A000CEE70B68002BBED0496801209847BAE786
:1097B00010B402240C720C684A7283B074B112F0B7
:1097C000040F0CBF82219221140748BF41F02001F1
:1097D000D40648BF21F08001C0F800130021C0F872
:1097E0000411D0F8044101941206019C5BBF0122D0
:1097F000C250C018084603B05DF8044B704700BF64
:109800002DE9F04F90F804E0794D0EEB4E0405EB96
:1098100084058BB02E7A4FEA4E0701971EB175482A
:109820000BB0BDE8F08FA4006B60714BDFF8DCA1DA
:109830001A514D1E06AC01F103084FF0010915F84D
:10984000016FFF2E00F0948026F08003370623601E
:1098500000F192801F2B87BF06F01F0CD3469C4659
:109860004FF0A04B09FA0CFCCBF80CC51F2B8ABF9C
:1098700006F01F034FF0A046564603F5E07303279A
:1098800046F82370A84504F10404D8D1036806986B
:10989000C3F860050798C3F864050898C3F868051D
:1098A0000998C3F86C050120C3F800058C79088974
:1098B0004D79C3F80C55C3F80445C3F80805488929
:1098C000C3F810050020C3F80002C3F80003C3F872
:1098D0001C01D3F81C410694069CC3F81001D3F870
:1098E00010410594059CC3F81401D3F81441049465
:1098F000049CC3F80401D3F80401039003985AB3FD
:1099000043F307321F2A09794FEA133341DD072950
:109910005CD8EC200841C00758D502F160404901ED
:1099200000F56140C9B280F8001390F800134909AE
:10993000EC2040FA01F1CD070ED52F4988680028A8
:1099400049D0520903F01F0351F82240012000FAC8
:1099500003F3234341F82230019B284873449E4679
:10996000234B03EB8E0701233B720BB0BDE8F08F56
:109970004FF0FF33236085E71F2B87BF06F01F0CD6
:10998000D3469C464FF0A04B09FA0CFCCBF808C517
:109990006CE71B48D040C607DED507290DD8EC2060
:1099A0000841C40709D5002AB7DA164803F00F04A6
:1099B00049012044C9B2017605E0002A06DA1148BF
:1099C00003F00F010844017E4909B1E702F160404C
:1099D00000F56140A9E7002ABEDB0B48520903F0FD
:1099E0001F03012101FA03F340F82230B4E700BF5E
:1099F000004300200500AD0BD84E00200000AD0B49
:109A0000FC06FFBDFCEC00E000E100E000030050BC
:109A100070B501791F4A046801EB410302EB83032F
:109A20004FEA410C1B7A44F307331F2B4FEA143ED5
:109A300016DD194EB568DDB15B090EF01F0E56F844
:109A40002300012505FA0EFE20EA0E0046F8230049
:109A5000614402EB81020023C4F80035137270BD2B
:109A60000E4DDD40ED07F3D50B4EB568002DE3D16B
:109A7000002BEDDB5B090A4D0EF01F0E2033012495
:109A800004FA0EF445F82340BFF34F8FBFF36F8FF6
:109A90000468DDE700430020D84E0020FC06FFBD2F
:109AA00000E100E02DE9F04190F804C000688E4626
:109AB0002549DEF80080BEF804700CEB4C0401EB85
:109AC0008404DEE90265247AC0F8208502F00104EE
:109AD00004EB5202C0F824750CEB4C0CC0F828655E
:109AE000C0F82C55C0F84085C0F84475C0F84865EA
:109AF000C0F84C55C0F81425DA0701EB8C010DD4E1
:109B000013F002020CD1002CC0F80022BDE8F04195
:109B1000DAB214BF0C230823FFF74ABE1022F2E783
:109B200044B10822C0F80022BDE8F041DAB20C23AB
:109B3000FFF73EBE0422C0F80022BDE8F041DAB2D1
:109B40000823FFF735BE00BF0043002010B590F892
:109B500004C01B4C02460CEB4C0004EB80034FEAA4
:109B60004C0E187A187A187A02280CD01368D3F899
:109B7000043133B10EEB0C0204EB820301201872A6
:109B800010BD012010BD1068D0F80421002AF1D1C9
:109B9000012242601A7A1A7A022AD0F8042108D0E7
:109BA000002AEED00EEB0C0304EB830301201872A5
:109BB00010BD002AF6D10029ECD1084610BD00BF27
:109BC0000043002001490248FFF79CBD00430020EC
:109BD00000C0014001490248FFF794BD0C4300203A
:109BE0000010024001490248FFF78CBD18430020D5
:109BF0000020024001490248FFF784BD24430020B1
:109C000000D002401F282DE9F84386BF00F01F0056
:109C1000254E4FF0A0461F2989464FF0010586BF0B
:109C200001F01F09DFF880804FF0A048854009F55A
:109C3000E07300F5E070012740F20D6207FA09F7C2
:109C4000C6F80855C8F8087546F8202048F82320BB
:109C500004203FF0ABFB0924D8F810351F424FF029
:109C600004000CD1C6F80C553FF0A0FBC6F808550F
:109C700004203FF09BFB631E13F0FF04ECD1042093
:109C8000C8F80C753FF092FBC8F8087504203FF047
:109C90008DFBD8F81015054821FA09F909F00109DA
:109CA000A0EB0900BDE8F883000300500100AD0BF4
:109CB00010B5404BD3F8002186B04AB33E4C002289
:109CC000C3F80021A27CD3F800010190D34303F034
:109CD000010304EB830101984968002954D0607C9A
:109CE000002102288DF81410E1745ED004EB82028A
:109CF000A374536804935160012223688DF80C20EB
:109D000003A89847637C022B06D10123637403E008
:109D1000D3F8041179B9284C237D53B100230121D4
:109D200022688DF80C1004938DF8143003A8237565
:109D3000904706B010BDC3F80421D3F804111E4C9F
:109D400002910299C3F80025A37C627404EB83019D
:109D50008DF8142048688DF80C2028B123680490F1
:109D600003A84A609847A37CDB4303F0010304EB9C
:109D700083035A682AB1002058602168049203A81E
:109D800088470023A374C7E7617C0229A7D0E37C3E
:109D9000002BB7D1012221688DF80C3004938DF887
:109DA000142003A8E2748847ACE70123049163748C
:109DB000A2E700BF00D0014030430020444A137C9A
:109DC000002B7FD170B4047A502C85B076D8457AB8
:109DD000502D73D811603F4953745382C2E9013347
:109DE0004368C1F80435437890F800C05B000CF07C
:109DF000010C03F0020343EA0C03C1F80835C1F873
:109E00001845C1F81C5585781F2D8BBF05F01F0420
:109E10002C4631494FF0A04104F5E073032641F888
:109E200023600123A340C1F80C35C478294B1F2CB3
:109E30008BBF04F01F0CA446274E4FF0A0460CF534
:109E4000E07C002146F82C10C3F84055C3F8444587
:109E5000C3F80011D3F800410394039CC3F8081120
:109E6000D3F808410294029CC3F80411D3F80411FA
:109E700001910321019CC3F80413837A072B08D8AE
:109E8000EC211941C90704D514495B01DBB281F803
:109E90001D33124890F81D13EC2349090B41DB07D1
:109EA00006D50F4B996879B1196841F000511960D6
:109EB0000C480123137405B070BC70470A4805B004
:109EC00070BC7047094870474FF000530360EFE7DC
:109ED0003043002000D001400003005000E100E0CA
:109EE000D84E00200000AD0B0400AD0B0500AD0BFB
:109EF000064B074800214FF00042C3F800150174DB
:109F0000C3F84025C3F84425704700BF00D0014086
:109F1000304300200B4B5A7C32B15A7C0A480B4B21
:109F2000012A18BF18467047094A4FF0020C012059
:109F30004FF0005183F811C018750348C2F80011A2
:109F4000704700BF304300200000AD0B0B00AD0B8D
:109F500000E100E0324B1A7C002A32D05A7C032AFE
:109F600056D000282BD00A0429D430B42D4CA26836
:109F700082B0002A42D0226822F0005222605D7C2A
:109F80009A7C022D1ABFD24302F00102002203EB99
:109F9000820CDCF80450B5B12348244991F81D2304
:109FA000EC2352091341DB0706D5A368002B31D0FF
:109FB000236843F00053236002B030BC70471C4854
:109FC00070471C48704703EB4202CCF804009181B3
:109FD000194AC2F86005C2F86415197C02291DD01F
:109FE000022119740123C2F80035C2F80051D2F8D9
:109FF00000110191019911481360CEE70B4A4FF00F
:10A000000055C2F88050BFF34F8FBFF36F8FB6E794
:10A01000054870474FF000530B60CDE70748BCE799
:10A0200030430020D84E00200B00AD0B00E100E0D3
:10A030000400AD0B0500AD0B00D001400000AD0BDE
:10A040000C4B5A7C012AD1B20DD05A7C22B15A7CD9
:10A05000022A01D008487047084909480022C1F87F
:10A0600000255A747047054A19740320587404482F
:10A0700051607047304300200B00AD0B00D0014011
:10A080000000AD0B074B1A7852B9074A116019B19D
:10A09000064A0121C2F80413012205481A707047CC
:10A0A000044870474C4300204843002000C0004053
:10A0B0000000AD0B0C00AD0B0549064B09680122F1
:10A0C0005A6009B1C3F80823034B00221A70704785
:10A0D0004843002000C000404C43002000EB8000BB
:10A0E00000EB8000704700BF30B5144D0023C5F869
:10A0F000003183B0D5F800310093114B00991B68F3
:10A1000001222A6013B10F4803B030BD0A24D5F8EC
:10A11000003104204BB93FF049F9013CF7D10A481E
:10A12000064B01225A6003B030BD0023C5F8003150
:10A13000D5F800310193019B0248F1E700C00040CF
:10A14000484300200000AD0B0100AD0B084B094A4D
:10A150000120002182B012685860C3F80011D3F8C2
:10A16000001101910199D3F8080502B0104700BF12
:10A1700000C000404843002003464FF48072002195
:10A18000502000F025BB00BF00B5422383B0CDE9CD
:10A190000030002201230221602000F03FFB03B0C9
:10A1A0005DF804FB10B5AA2290F8F73004460421AC
:10A1B000602000F05FFB00B110BD94F8F61094F839
:10A1C000F53003EB01239BB2BDE81040552243F468
:10A1D00080630321602000F04DBB00BFF0B52DED82
:10A1E000028B87B001230DF11606CDE90036044637
:10A1F0000D46002392220221602000F00FFB18B9C7
:10A20000BDF81600C0F3011094F8DD2094F8DC309E
:10A2100094F8D210DFEDBF7A94F8DF70DFEDBD5A0D
:10A2200003EB022307EE103A94F8DA2094F8DB30BF
:10A23000B8EEC77A02EB032201F00F03B4EEE77A1F
:10A24000C0F103000A33F1EE10FA00EB11111844CB
:10A2500094F8DE30C8BFDFEDB07A03EB0723C8BF48
:10A2600037EE677A07EE903A01238B40F8EEE77AF3
:10A2700006EE903AF4EEE57AF8EEE66AF1EE10FAC0
:10A2800087EE266A4FF0010303FA00F312B22A8028
:10A290004FF002014FF06000C8BF9FED9F7A85ED3F
:10A2A000016AC8BF77EEC77A07EE103AB8EEC77AF0
:10A2B000C7EE876A9FED977AC5ED026A94F8D830A9
:10A2C00007EE903AFAEEED7AC5ED037A94F8E720BE
:10A2D00094F8E63003EB022307EE903AF8EEE77AC3
:10A2E000F4EEC77AF1EE10FAC4BF9FED8B7A77EEE9
:10A2F000C77A9FED8A7A67EE877AC5ED047A94F87B
:10A30000C42094F8C030019607EE902A03F00F03A2
:10A310001206B8EE677A4FF0010248BFDFED807A8F
:10A32000009203F1080302FA03F348BF37EE677A9D
:10A3300007EE903AF8EEE77A9222C7EE276AC5ED6B
:10A34000056A94F8E23000EE903A94F8E330F8EEC3
:10A35000600A08EE903A0023CDED030A00F05EFAA1
:10A36000F8EE688ADDED030A074618B9BDF81670E5
:10A37000C7F3011794F8E12094F8E03003EB0223CF
:10A3800007EE903AB0EE000AB8EEE78A48F0E8F837
:10A39000F0EE680AF0EE408AB0EE000A48F0E0F80D
:10A3A00088EE286AC7F10303DAB20123934004F16F
:10A3B000BF0105F1180207EE903AF8EEE76A04F1E2
:10A3C0007F0313F8010F07EE100AB8EE477A99429F
:10A3D000C7EE007A77EE867A87EEA67AA2EC017A4B
:10A3E000EFD1019694F8D72094F8D63003EB0223EE
:10A3F00007EE903AF8EEE77A922287EEA87A0221E9
:10A400006020C7EE267AC5EDC67A94F8D96006F0CA
:10A410000F0308EE103A012300930023B8EEC88A18
:10A42000360900F0FBF918B9BDF81600C0F30110A9
:10A43000C0F10303DFB207EE907AF8EEE70AB0EE60
:10A44000000A70EE880A48F08BF80123BB4007EE43
:10A45000903A94F8D12094F8D0309FED315A03EB24
:10A4600002231BB2F8EEE75A07EE903AB8EEE76A1D
:10A47000621E05F58C7C04F13F0012F8013F92F852
:10A480004010B34007EE903A07EE101AF8EEE77A64
:10A49000B8EE477A77EE867A11F0800F18BF37EE64
:10A4A000457AC7EEA56A9042C7EE007AECEC016AE5
:10A4B000CCED3F7AE1D194F8D42094F8D3309FEDDD
:10A4C000157A03EB022307EE903AF8EEE77A94F858
:10A4D000D530F4EEC77AF1EE10FAC4BF9FED0E7AD4
:10A4E00077EEC77A0020C7EEA56A07EE903A1B0602
:10A4F000F8EE677A48BF9FED0A7AC5EDC76A48BF94
:10A5000077EEC77A87EE807A85EDC87A07B0BDEC22
:10A51000028BF0BD00FEFF46000080470000803542
:10A520000000804310B584B00DF10E020123CDE987
:10A5300000320446002392220221602000F06EF9CE
:10A5400008B104B010BDBDF80E304FEA041C23F072
:10A5500030030CF0300C9BB243EA0C03552203216C
:10A56000602000F087F904B010BD00BF10B584B0C2
:10A570000DF10E020123CDE90032044600239222A0
:10A580000221602000F04AF908B104B010BDBDF806
:10A590000E3023F00F0304F00F049BB22343552227
:10A5A0000321602000F066F904B010BDB0F88030DF
:10A5B000D1ED016A07EE903A1B04B1F90030F8EED4
:10A5C000675A07EE103A48BFDFED197AB8EEC77A3E
:10A5D00048BF75EEE75AD1ED027AB1EE006A37EE68
:10A5E000657A26EE676A26EEA60A00B5A6EE070A89
:10A5F00083B0B5EE400AF1EE10FA0ED4B1EEC07A97
:10A6000037EE667A77EEA77AF3EE096A87EE270AC5
:10A6100030EE260A03B05DF804FB019148F032FEEB
:10A620000199B0EE407AD1ED016AD1ED027AE7E707
:10A63000000080472DE9F0412DED0A8B0D460646BE
:10A640001746F0EE40AAF0EE608AFFF7AFFFDFEDAD
:10A650005B7AB6F8823095EDC7BADFED59BA9FED57
:10A6600057AA78EEA78A70EE277A68EEA88A67EE76
:10A67000A77A68EEA88A1A04F0EE686AE7EEE76A3D
:10A68000A6F1020605F1180407EE903AB8EE677AD3
:10A69000C6EEAA7A05F58C78B3EE099A78EEE78AC9
:10A6A00048BFDFED477AD5EDC86A30EE499A48BF1A
:10A6B00037EE677AF0EE4B7AE6EE897AF7EE009A9B
:10A6C00037EE67BA36F8023F94ED806A94ED407A2F
:10A6D000D5ED036A94ED008AD5EDC65A07EE903A9F
:10A6E000A9EE067A1B0404F10404F8EE677A95EDEE
:10A6F000046A48BF77EEEB7A77EEC77AB0EE487A15
:10A70000E6EECB7AB0EE698A87EEAACAA6EEE57AC3
:10A71000A9EE068AB0EE4C0A28EE078AA8EE880A4F
:10A7200068EE087A67EE887A27EE800AB5EE400A6E
:10A73000F1EE10FA2ED4B1EEC07AB5EE407AF1EE19
:10A7400010FA36D4B1EEC70A95ED057AF0EE697AC3
:10A75000E7EE4A7A27EE888AA7EE008ACCEE087ADE
:10A7600077EEA87AF5EE407AF1EE10FA1CD4B1EE4D
:10A77000E70AB5EE400AF1EE10FA10D4F1EEC07A15
:10A78000A04577EECA7AE7EC017A9BD1BDEC0A8B43
:10A79000BDE8F08148F076FDB0EE407ACDE748F0B4
:10A7A00071FDF0EE407AEBE7B0EE670A48F06AFD23
:10A7B000DFE7B0EE470A48F065FDC5E7339388430D
:10A7C00000008047014B1860704700BF50430020D5
:10A7D000F0B5400085B0104F8DF80F10C4B21D4683
:10A7E00001231646386800930DF10F0221461CF034
:10A7F000F1F868B901460091386833462A46214687
:10A800001CF0C6F8003818BF0120404205B0F0BD6A
:10A810004FF0FF30FAE700BF5043002070B584B01E
:10A820004000134E8DF80E30C4B201239DF8205025
:10A830008DF80C108DF80D20009330688DF80F50B6
:10A84000042303AA21461CF0C5F868B90346009307
:10A850003068099A6B0021461CF09AF8003818BF3E
:10A860000120404204B070BD4FF0FF30FAE700BF56
:10A870005043002010B5400084B05FFA83FC0C46C2
:10A8800000F0FE010E488DF808408DF80AC0002443
:10A89000ACEB020CC2EB13228DF809C08DF80B2033
:10A8A0004FEA132C00680094052302AA8DF80CC00F
:10A8B0001CF090F8001B18BF0120404204B010BDEE
:10A8C000504300202DE9F04F2DED068BB0F84030BD
:10A8D000ADF6FC4D1A0B0D46C3F3031703F00F0141
:10A8E0000646C3F30323039302F11E030AEE903AD4
:10A8F00036F8423F049300F14E0406AA8C4636F81F
:10A90000023F103203F00F0142F8101CC3F3031191
:10A9100042F80C1CB442C3F303214FEA133342F84C
:10A92000081C42F8043CEAD11DAE05AB6146059611
:10A93000029353F8042F072AC4BF103A1A609E42AC
:10A94000F7D100F15E0C1EAA34F8023F103203F07A
:10A950000F0642F8106CC3F3031642F80C6C644502
:10A96000C3F303264FEA133342F8086C42F8043C61
:10A97000EAD11DAB3DAC53F8042F072AC4BF103AEF
:10A980001A609C42F7D100F17E03019301238B40B2
:10A9900007EE903A05F5805B00230093F8EE6AAA73
:10A9A0005B469FED57AADFED579AB8EEE79AAB46A4
:10A9B0003EAE1D46029ADDF8049052F8043F029222
:10A9C000039A03FA02F8049B9844009B3EAAF3EE14
:10A9D0000F8A02EB830A1EAC39F8023FC3F305135A
:10A9E00007EE903A54F8043BF8EEE77ABB40434454
:10A9F000F4EEE87A08EE103AF1EE10FAC8BF77EEFE
:10AA0000CA7AB8EEC88ACAED007AA9EE278AB0EEF3
:10AA1000000AF0EE6A0A47F0A3FDC8EE007AA642EB
:10AA200095ED956AD5ED946A9BED067A76EE866A89
:10AA3000B6EE006A27EE667AE7EE067A89EEA77A26
:10AA4000AAEC017AC8D1019B059A40330193009B7F
:10AA500020330093029B9342ACD19DED3E8A3FACE4
:10AA60005D46F0EE487A0DF6F8462346B3EC017ADF
:10AA7000B4EE677AF1EE10FAC8BFF0EE477A9E4264
:10AA8000F4D19FED217AF4EEC77AF1EE10FA31D5C8
:10AA90004FF0000877EEA77A08F10108F4EEC77AC4
:10AAA000F1EE10FA5FFA88F8F4D407EE908AF8EE27
:10AAB000678AB6EE009A05F1480701E0B4EC018A16
:10AAC000F0EE680AB0EE000A47F04AFDF0EE497A6F
:10AAD000E0EE087AA642FCEEE77A17EE903A27F805
:10AAE000023FEBD185F84A860DF6FC4DBDEC068B96
:10AAF000BDE8F08FDFED058A4FF00008D9E700BF11
:10AB000000008042BD378635CDFEFF4600000000C4
:10AB10002DE9F04F2DED068BADF6144D03ADB0F8D9
:10AB20006E20B0F86C30AB70130A6B70B0F87030F8
:10AB3000EA7003F00F02C3F30313083307EE903AF1
:10AB400001239340F8EE678A07EE903A90F96D2062
:10AB50002A70B8EEE79A8846F0EE089AB2EE00AA9C
:10AB600000F1BE0404AF0026A4F1400A06F1010979
:10AB7000BB4600E0EA563AF8023FC3F3420307EE51
:10AB8000903AF8EEE77A07EE102AF4EEE97AF1EE61
:10AB900010FAC8BF77EECA7AB8EEC78ACBED007A52
:10ABA000A9EE278AB0EE000AF0EE680A47F0D8FC5A
:10ABB000C8EE007AC9F3401209F00103544503EBD3
:10ABC000420309F10109EBEC017AD3D12036B6F545
:10ABD000407F04F1400407F1800707D006F001022E
:10ABE000C6F3401302EB4303EA56BDE79DED048A2A
:10ABF00005ACB0EEC87A0DF541652346F3EC017A59
:10AC0000F0EEE77AF4EE477AF1EE10FAC8BFB0EE54
:10AC1000677A9D42F2D1DFED217AB4EEE77AF1EE68
:10AC200010FA37D5002737EE077A0137B4EEE77A06
:10AC3000F1EE10FAFFB2F6D407EE907AF8EE678ADA
:10AC4000B6EE009A08F64B4601E0B4EC018AF0EE4D
:10AC5000680AB0EE000A47F083FC20EE080AB5EE61
:10AC6000C00AF1EE10FA4CBF30EE490A30EE090A84
:10AC7000A542FDEEC07ACDED017A9DF9043006F8CB
:10AC8000013FE2D188F84C7F0DF6144DBDEC068BE8
:10AC9000BDE8F08FDFED028A0027D1E79A997D4267
:10ACA000000000002DE9F04F2DED048BB0F8683066
:10ACB000ADF6144D1D0BB3F5004FC3F3032203AFE4
:10ACC00028BF103D1C0548BF103A8A46BA701906C5
:10ACD000C3F3031248BF103A7A7003F00F021B0748
:10ACE000B0F87030C3F3032307EE903A6DB248BF5B
:10ACF000103AB8EE678A3D70FA7024AE0DF54969D6
:10AD00004FF00008A6F1800B08F1010400E0FD56A9
:10AD1000F0EE480AB0EE000A47F022FC07EE905A27
:10AD2000B8EEE77AC4F34012C7EE007A04F00103EC
:10AD300003EB42030134EBEC017AB345E7D18036F3
:10AD4000B14508F1200807D0C8F3401308F001020C
:10AD500002EB4303FD56D5E79DED048A05ACB0EE4A
:10AD6000C87A0DF541652346F3EC017AF0EEE77AF7
:10AD7000F4EE477AF1EE10FAC8BFB0EE677A9D4262
:10AD8000F2D1DFED227AB4EEE77AF1EE10FA39D59E
:10AD9000002737EE077A0137B4EEE77AF1EE10FAC2
:10ADA000FFB2F6D407EE907AF8EE678AB6EE009A14
:10ADB0000AF64C7601E0B4EC018AF0EE680AB0EED7
:10ADC000000A47F0CDFB20EE080AB5EEC00AF1EE0E
:10ADD00010FA4CBF30EE490A30EE090AA542FDEEEA
:10ADE000C07ACDED017A9DF9043006F8013FE2D139
:10ADF0000AF5805A8AF84D720DF6144DBDEC048B9D
:10AE0000BDE8F08FDFED028A0027CFE79A997D42F7
:10AE1000000000000B464FF450724FF4105100F048
:10AE20006DBF00BF30B50546A3B00C460DF106035B
:10AE300001224FF40041284600F060FFA0B9BDF8A0
:10AE400006201207F2D530224FF40041284600F0C8
:10AE500083FF431C08D023464FF440724FF48061B7
:10AE6000284600F04BFF08B123B030BD02AB4022B2
:10AE70004FF4E061284600F041FF0028F4D101AB17
:10AE80002846012248F20D0100F038FFBDF80650B7
:10AE9000BDF80430A4F8803605F00105A4F8825608
:10AEA0000028E1D1BDF8082047F6FF70824253D058
:10AEB0000DF116030DF12C0C33F8021F81424BD01B
:10AEC0006345F9D1BDF83030834245D0BDF832300A
:10AED000834241D0BDF8343083423DD00DF136037A
:10AEE0000DF1480C47F6FF7033F8021F814233D052
:10AEF0006345F9D10DF156030DF16C0C47F6FF7067
:10AF000033F8021F814227D06345F9D1BDF8703074
:10AF1000834221D0BDF8723083421DD0BDF8743019
:10AF2000834219D00DF176030DF1860C47F6FF70C0
:10AF300033F8021F81420FD09C45F9D104F2FE5133
:10AF40000DF10A0322A801E033F8022B21F8022FA9
:10AF50008342F9D1B4F88256002347F6FF7001E02E
:10AF6000182B0DD09901DAB2615A814203F1010325
:10AF7000F6D102F00102AA42F2D16FF0070073E7A6
:10AF8000284671E72DE9F04F0546B0F86600B5F99F
:10AF900066309FED7D6ADFED7D6ADFED7D5ADFED86
:10AFA0007D4A020AB0F5004F28BFA2F5807263F017
:10AFB000FF0328BF92B25B01A3F5005352012DEDB0
:10AFC000048B0A804B80B5F864309A0A07EE102A89
:10AFD000B8EEC77AF3EE0F7AB4EEE77AF1EE10FA34
:10AFE000C8BFDFED6D7AB5F86220C3F30903C8BFAF
:10AFF00037EE677A07EE903AF8EEE77A2B8C8A8183
:10B00000F4EEC67AF1EE10FA67EE266AC8BF9FED3D
:10B01000637AB5F860208A8203F47043C8BF77EE84
:10B02000C77A07EE103AB5F87830C1ED016AB8EE8C
:10B03000C77ADAB2B2EE006AA7EE256A1B0A0C469E
:10B0400007EE102AF4EE005A67EEA57AB8EEC77A3A
:10B05000DFED535AC1ED027AB4EEE57AF1EE10FA63
:10B06000C8BFDFED4C7AB5F8702081ED046AC8BF27
:10B0700037EE677ADFED4B7ADFED496ADFED485A4C
:10B0800027EE277A07EE903AC2F3013381F8243095
:10B090004FF6D872B5F87E300A64B5F87E2081ED9F
:10B0A000067AC2F30312C3F30133A1F8442003EB81
:10B0B0008303B5F87E105B0012FB03F2F8EEE77A2B
:10B0C00092B2C1F30321A4F8442001FB03234FF4FF
:10B0D000C872F4EEE67AA4F84630A4F84820B5F831
:10B0E0007E30B5F87A20F1EE10FAC8BF9FED297ACC
:10B0F00003F00F0303F10801C8BF77EEC77AB5F874
:10B100007C309FED297AD0B2120A67EE877A07EE7B
:10B11000102ADAB21B0A06EE903A01238B4005EEA4
:10B12000102AC4ED0A7A07EE900AB8EEC76A07EE55
:10B13000103AF8EEE77AB8EEC55AF8EEE66AB8EEDD
:10B14000C77AC4ED0B7ABFB084ED0C6A04F12C030E
:10B1500084ED0D5AC4ED0E6A04F1300204F13C0195
:10B16000F4EEE57AF1EE10FAC8BF77EEE47AC7EEB6
:10B17000876AC8BFC3ED007AE3EC016A994215D033
:10B18000F2EC017AECE700BF0080FF430000803959
:10B1900000008038000080430000804200008044AE
:10B1A0000000FE420000003D00000039B5F84030CC
:10B1B000B5F97410CC4AE2631B0B1B33C1F30907CA
:10B1C000B5F87420DFEDC97A00EE903A8B0548BFE0
:10B1D000A7F580674FEA92234ABFBEB2BEB23FB224
:10B1E000B2F5004F24BF403B9BB233441EB2B5F8CA
:10B1F0007230C3F3090307EE103AB8EEC78AF8EECF
:10B20000600AB4EEE78AF1EE10FAC8BFDFEDB87A53
:10B21000B0EE000AC8BF38EE678A47F0A1F9B5F86A
:10B2200072309B0A07EE903AF8EEE77AB3EE0F7AA7
:10B23000F4EEC77AF1EE10FAC8BF9FEDAE7A95F83A
:10B24000763088EE009AC8BF77EEC77A08EE103ADB
:10B250009FEDA97AB5F87030F7EE008AE7EE878A9D
:10B26000C3F303130833DFEDA57AB8EEC88A00EE06
:10B27000903AB4EEE78AF1EE10FAC8BFDFEDA07A9B
:10B28000F8EE600AB0EE000AC8BF38EE678A47F0F1
:10B2900067F988EE007AB5F876301B0A06EE903A28
:10B2A000DFED967AB5F8703084ED087AB8EEE68A6C
:10B2B000C3F30323B4EEE78AF1EE10FA00EE903AFE
:10B2C000C8BFDFED8F7AF8EE600AB0EE000AC8BFA3
:10B2D00038EE678A47F044F9C8EE007A04F58053E7
:10B2E00021462846039369EE288AC4ED077AA3F81D
:10B2F000587283ED949AC3ED958AA3F85A62FFF7CA
:10B30000E1FA288C294600F00F03019331F8229FBF
:10B31000C0F303130293C0F3032005F12E0706AA1E
:10B3200031F8023F103203F00F0642F8106CC3F3FD
:10B33000031642F80C6C8F42C3F303264FEA133313
:10B3400042F8086C42F8043CEAD105AA1DA913464C
:10B3500053F8046F072EC4BF103E1E609942F7D108
:10B3600005F13E0C1EAE964637F8023F103603F04C
:10B370000F0246F8102CC3F3031246F80C2CBC4500
:10B38000C3F303224FEA133346F8082C46F8043C73
:10B39000EAD172461DAB3DAF53F8046F072EC4BF10
:10B3A000103E1E609F42F7D105F17E0A3EABCDE90B
:10B3B000043A04F24A6ED44652F8043F83404B44A8
:10B3C0009BB276461EAFE046009338F802AF019B71
:10B3D0004FEA9A2BBAF5004F0FFA8BFA24BFABF164
:10B3E000400B0FFA8BFA0AFA03FBA6F802A0029BA5
:10B3F00057F804AB0AFA03FA009B9A44049BDA4418
:10B40000BB4226F802AFE0D191420CF1400C0EF1A4
:10B41000400ED1D121462846DDF814A0FFF778FB75
:10B4200021462846FFF73EFCB5F86A30DFED356A65
:10B43000AA8A03F03F0107EE901AF8EEE77AB3EE1E
:10B440000F7AF4EEC77AF1EE10FAC8BF9FED297AB1
:10B45000C3F38411C8BF77EEC77A07EE101AB8EEAF
:10B46000C77AB2EE0E6AB4EEC67AF1EE10FA67EE63
:10B47000A66AC8BFDFED247A4FEAD323C8BF37EEF0
:10B48000677A07EE903AF8EEE77AB2EE0E6AF4EEDB
:10B49000C67AF1EE10FAC8BF9FED1B6A039BC8BFC6
:10B4A00077EEC67AF6EE005AB4EE006A41F26821F1
:10B4B00027EE257A67EE867A6FEA1212671802F095
:10B4C000800284F825200026C3ED976A83ED987AE0
:10B4D000C3ED997A4FF0FF3363507B60BB60FB6034
:10B4E0003B61314633461FE017B751B90080FF4337
:10B4F00000008044000080420000003C0000FE424A
:10B50000000080430000803D0000004224F8153018
:10B5100081B201339BB2B3F5407F1BD0052900F007
:10B52000A680052E00F0AA803AF8022F01F6341505
:10B53000481C002AEAD012F0010F06F63812E8D0B3
:10B5400004EB42020136538001339BB2B3F5407FD6
:10B55000B6B2E3D1052900F08A80052E00F08E8076
:10B560008B19042B00F39180002900F0918001F1E8
:10B57000010904F593581FFA89F908F106084FF0FC
:10B58000010E7145724615DD38F81EC037F81230CD
:10B59000ACEB030303F12105022D03F1010002F1DD
:10B5A0000102A3F11F035BD9022859D9022B57D9F5
:10B5B0009142EBDC0EF1010EF145E2D156B306F1FA
:10B5C000010E04F5935C04F593551FFA8EFE0CF101
:10B5D000100C123501229642104617DD3CF81280FD
:10B5E00035F81030A8EB030303F1210ABAF1020F7A
:10B5F00003F1010900F10100A3F11F0330D9B9F1F2
:10B60000020F2DD9022B2BD98642E9DC0132964557
:10B61000E1D119B304F593531C46013989B20A33B9
:10B62000123403EB410204EB4600A6B13D882146EB
:10B6300031F8023BEB1A03F1210EBEF1020F03F1C8
:10B64000010CA3F11F030BD9BCF1020F08D9022B87
:10B6500006D98142ECD10237BA42E6D1002001E09E
:10B660006FF005003FB0BDEC048BBDE8F08F6FF0CC
:10B6700002003FB0BDEC048BBDE8F08F6FF003001B
:10B680003FB0BDEC048BBDE8F08F6FF00400E9E73C
:10B69000002E94D13046E5E730B583B00C460DF16D
:10B6A0000603012248F20D01054600F027FB08B110
:10B6B00003B030BDBDF80620A10222F4406201F4BF
:10B6C000406192B20A43284648F20D0100F044FB63
:10B6D00003B030BD30B583B00C460DF10603012236
:10B6E00048F20D01054600F009FB08B103B030BD7A
:10B6F000BDF80620E10122F4607201F4607192B29B
:10B700000A43284648F20D0100F026FB03B030BD85
:10B7100038B5B0F8543607EE903A1B0491F824304F
:10B7200000EE903A2DED028BB0F88036F8EE678A85
:10B7300048BFDFED187AF8EE600AB0EE000A48BFA5
:10B7400078EEE78A0C46C3F3812546F009FF07EE41
:10B75000905AB0EE408AF8EEE70AB0EE000A46F0E2
:10B76000FFFE88EE006AB4F9023007EE903AB4F9B1
:10B770000030DFED096AF8EEE77A07EE103AD8EE0E
:10B78000867ABDEC028BB8EEC77A87EE870A30EE78
:10B79000260A38BD000080473333534038B505468C
:10B7A0000C46FFF7B5FFB5F8403694ED046AD4EDCA
:10B7B000015ADFED1C4A94ED025A07EE903A1A0442
:10B7C000B8EE677AB5F8003644BFDFED177A37EE8A
:10B7D000677A07EE903A1B0448BFDFED136AA3892E
:10B7E000F8EE677A48BF77EEE67ADFED106AE6EEAC
:10B7F000077A30EE660A87EE276AF7EE006AE5EE12
:10B80000806A07EE903A26EE246AB8EEE77AC6EE32
:10B81000267AF3EE095A77EEC77A87EE850A30EE7C
:10B82000250A38BD0000804800008047333353406C
:10B830002DE9F04F2DED108B85B0B0F882360093D6
:10B840000F4681469046F0EE608AF0EE40AAFFF780
:10B850005FFF39464846B0EE40AAFFF79FFFDFED95
:10B860006F7A97F84C3F78EEA78A70EE277A68EEE9
:10B87000A88A67EEA77A68EEA88A00EE903AB0EE42
:10B88000687AA7EEE77A07F5805BF8EE600AC7EE04
:10B890002A7AF0EE409AB0EE000A78EEE78A46F097
:10B8A0005FFE9BF84D3200EE903AB0EE40BAF8EEF3
:10B8B000600AB0EE000A46F053FE97F84A3600EEF2
:10B8C000903AF0EE40BAF8EE600AB0EE000A46F0A8
:10B8D00047FEF7EE00EAD7ED0B5A9FED516AB7F934
:10B8E0004420B7F94630D7ED0C6A97ED0D7A97ED05
:10B8F000075AB9F880A6F0EE6E7AE5EE867A9B1AC2
:10B900004FEA6A1AB0EE6EFACEEEA7DA0AF08001BC
:10B9100007EE902AF8EEE77AB9F8102697ED086A54
:10B92000A6EEA7FA07EE903AB9F81436F8EEE77AE1
:10B930001D04E7EE27EA07EE903AB7F91430B8EEA7
:10B94000677A44BFDFED377A37EE677A07EE903AD1
:10B95000F8EEE77AB9F85036C7EE87CA140407EE56
:10B96000902A48BFDFED2F6AF8EE677A07EE103AAB
:10B9700048BF77EEE67A180448BFDFED2A6ABBF9C4
:10B980005832B8EE477A6CEEA77A48BF37EE667A3F
:10B99000F3EE096A79EEE69AF7EE006AF0EE665A7F
:10B9A000E6EE295A9FED206A3AEE46AA6FEE2EEA9D
:10B9B000E5EE0A6A2CEE877AB0EE666A06EE903AF9
:10B9C000F8EEE66A97F8253065EEE66A8B42E6EE19
:10B9D000867AB0EE40CACDED027A00F05381BBF911
:10B9E0005A32DBED976A07EE903AF8EEE77A77EE97
:10B9F000A67A67EEA57AA6EE677A4FFA8AFA07F179
:10BA00004A069FED0ADA9FED059A9FED06EA8DED55
:10BA1000037A07F64C45002414E000BF33938843B3
:10BA2000000020420000804733335340BD37863545
:10BA3000B4F5407F08F1040806F1020605F101059E
:10BA400000F01B81C4F34013BAF1000F20461A46E0
:10BA5000B9F882E6BCBF00F001025A40964504F1F5
:10BA60000104E5D139F8102007EE902A120495F967
:10BA7000002007EE102AB8EEC77AB8EE676AC7EE64
:10BA80000B6A95F90123F7EE007AF0EE675AE9EEBA
:10BA9000A65A06EE902AF8EEE66AB6F9022686EE77
:10BAA000AB7A48BF36EE4E6AEAEE077A07EE102A06
:10BAB000B8EEC77A97F8252027EE257A8A4267EEF6
:10BAC000C77AE6EE2C7A29D05B005A1E10F1030EDD
:10BAD00007EE102A00F1020248BF00F1060E921094
