:020000022000DC
:106000001C7F0120F1D00200EDD002001D730400BE
:10601000EDD00200EDD00200EDD002000000000043
:10602000000000000000000000000000EDD00200B1
:10603000EDD002000000000031D80200EDD00200D7
:10604000656B0200EDD0020099920200A977020070
:10605000B5770200EDD002003569020041720200FE
:10606000397B0200917B0200E97B02007977020014
:10607000D19D0200EDD00200EDD00200EDD0020073
:10608000EDD0020089770200EDD00200EDD00200D1
:10609000EDD00200EDD00200E9B80600EDD002001C
:1060A000EDD00200EDD00200417C0200997C02009C
:1060B000698A02003D990200000000000000000013
:1060C000EDD00200798A0200898A0200B98B0200B1
:1060D00099770200EDD00200EDD002008DDE0200C3
:1060E000EDD00200EDD00200EDD002000000000073
:1060F00000000000998A020000000000318B0200BD
:1061000081F0004102E000BF83F0004330B54FEA68
:1061100041044FEA430594EA050F08BF90EA020FD5
:106120001FBF54EA000C55EA020C7FEA645C7FEA68
:10613000655C00F0E2804FEA5454D4EB5555B8BF8B
:106140006D420CDD2C4480EA020281EA030382EAFC
:10615000000083EA010180EA020281EA0303362D8E
:1061600088BF30BD11F0004F4FEA01314FF4801C61
:106170004CEA113102D0404261EB410113F0004F73
:106180004FEA03334CEA133302D0524263EB43032A
:1061900094EA050F00F0A780A4F10104D5F1200EC8
:1061A0000DDB02FA0EFC22FA05F2801841F1000123
:1061B00003FA0EF2801843FA05F359410EE0A5F1F7
:1061C00020050EF1200E012A03FA0EFC28BF4CF028
:1061D000020C43FA05F3C01851EBE37101F00045DE
:1061E00007D54FF0000EDCF1000C7EEB00006EEBEB
:1061F0000101B1F5801F1BD3B1F5001F0CD3490875
:106200005FEA30004FEA3C0C04F101044FEA4452CB
:1062100012F5800F80F09A80BCF1004F08BF5FEA52
:10622000500C50F1000041EB045141EA050130BD32
:106230005FEA4C0C404141EB0101013C28BFB1F544
:10624000801FE9D291F0000F04BF01460020B1FA8F
:1062500081F308BF2033A3F10B03B3F120020CDA62
:106260000C3208DD02F1140CC2F10C0201FA0CF040
:1062700021FA02F10CE002F11402D8BFC2F1200CA5
:1062800001FA02F120FA0CFCDCBF41EA0C0190405B
:10629000E41AA2BF01EB0451294330BD6FEA0404A4
:1062A0001F3C1CDA0C340EDC04F11404C4F120028F
:1062B00020FA04F001FA02F340EA030021FA04F3A1
:1062C00045EA030130BDC4F10C04C4F1200220FAF8
:1062D00002F001FA04F340EA0300294630BD21FA36
:1062E00004F0294630BD94F0000F83F4801306BFFC
:1062F00081F480110134013D4EE77FEA645C18BFF0
:106300007FEA655C29D094EA050F08BF90EA020F86
:1063100005D054EA000C04BF1946104630BD91EA7E
:10632000030F1EBF0021002030BD5FEA545C05D181
:106330004000494128BF41F0004130BD14F58004C0
:106340003CBF01F5801130BD01F0004545F0FE4134
:1063500041F470014FF0000030BD7FEA645C1ABF69
:10636000194610467FEA655C1CBF0B46024650EAA0
:10637000013406BF52EA033591EA030F41F40021CC
:1063800030BD00BF90F0000F04BF0021704730B552
:106390004FF4806404F132044FF000054FF0000127
:1063A00050E700BF90F0000F04BF0021704730B5E8
:1063B0004FF4806404F1320410F0004548BF4042BD
:1063C0004FF000013EE700BF42004FEAE2014FEA12
:1063D00031014FEA02701FBF12F07F4393F07F4FED
:1063E00081F06051704732F07F4208BF704793F0F0
:1063F0007F4F04BF41F40021704730B54FF4607403
:1064000001F0004521F000411CE700BF50EA010205
:1064100008BF704730B54FF000050AE050EA0102AE
:1064200008BF704730B511F0004502D5404261EB1E
:1064300041014FF4806404F132045FEA915C3FF45F
:10644000D8AE4FF003025FEADC0C18BF03325FEAFC
:10645000DC0C18BF033202EBDC02C2F1200300FAAD
:1064600003FC20FA02F001FA03FE40EA0E0021FAD2
:1064700002F11444BDE600BF4FEA4102B2F1E0432D
:1064800024BFB3F5001CDCF1FE5C0DD901F0004C1B
:106490004FEAC0024CEA5070B2F1004F40EB83006B
:1064A00008BF20F00100704711F0804F21D113F197
:1064B0003872BCBF01F00040704741F480114FEAD0
:1064C0005252C2F11802C2F1200C10FA0CF320FA59
:1064D00002F018BF40F001004FEAC1234FEAD32376
:1064E00003FA0CFC40EA0C0023FA02F34FEA4303E0
:1064F000CCE77FEA625307D150EA01331EBF4FF069
:10650000FE4040F44000704701F0004040F0FE4083
:1065100040F40000704700BF53B94AB9002908BFD2
:1065200000281CBF4FF0FF314FF0FF3000F00CB8D7
:10653000ADF1080C6DE904CE69F01AF9DDF804E05C
:10654000DDE9022304B07047704700BF70B5254CE9
:1065500094F85B5082B0002D3ED106463022FF21D8
:1065600004F1240051F007FE2422FF21204651F0BF
:1065700002FEFF23072E84F85430C4F85550A4F8C7
:10658000595008D8EC233341DA0704D5164A730171
:10659000DBB282F80633144991F80623EC23520942
:1065A0001341DB0706D5114B9A68C2B11A6842F055
:1065B00040021A600E4B0022C3F87C21D3F87C21E4
:1065C000019201980B484FF000410122C3F80413D7
:1065D00084F85B2002B070BD074802B070BD402354
:1065E0000B60E7E7D040002000E100E070510020A0
:1065F000006000400000AD0B0500AD0B034B93F8AD
:106600005B00003818BF0120704700BFD040002059
:10661000F0B5434D2B1893F92430002B01DB414892
:10662000F0BD8E78C6F34006002E14BF0023082369
:1066300003F1804C0CF1FF3C05EB8C0C14BF4FF0C8
:10664000080E4FF0090E02E001339E453BD95CF87D
:10665000044F0134F8D12C1845F823205AB284F89D
:10666000242016B9EC1884F84C008C7867071CD4E9
:10667000E60744D41F284C7887BF2B4F00F01F0635
:1066800006464FF0A04706F5E076A40047F82640FE
:10669000264FC60800F0070E17F806C0012404FABA
:1066A0000EF444EA0C04BC558C780978A4070CD489
:1066B000083A45FA82F292F8543043EA811382F89C
:1066C00054301B48F0BD1B48F0BD9B0003F18043D4
:1066D00003F5C0430202D3F8100520F44F3020F434
:1066E0004070C3F810050904D3F8100502F47C5279
:1066F00001F440310A430243C3F81025E1E71F28A3
:1067000087BF094C00F01F0606464FF0A04404EB7B
:106710008604D4F8006726F00206C4F80067B7E7DD
:10672000D04000200B00AD0B00030050254100209D
:106730000000AD0B0200AD0B314A131893F9243061
:10674000072B10DD134493F84C309B09032B32D0F8
:10675000012B0CBF4FF400314FF440311F2840D8BB
:106760004FF0A04233E0D8B2072823D8980000F1B8
:10677000804C0CF5C04C10B4DCF8104500F18040A2
:1067800000F5C24044F00104CCF810450024046038
:1067900083B000680190019841B152F823202AB1DA
:1067A0001849012202FA03F3C1F8043303B05DF87B
:1067B000044B704770471F2817D84FF0A0431A4664
:1067C000D3F81015C14001F001010231090402EBB8
:1067D0008002D2F8003723F440330B43C2F800376D
:1067E000704700F01F00084AF1E7074BD3F8101577
:1067F00000F01F00C14001F0010102310904F2E77D
:10680000D04000200060004000030050174B0344BC
:1068100093F92430072B0FDD1F2886BF144B00F09F
:106820001F004FF0A04303EB8003D3F8002722F4AE
:106830004032C3F800277047DAB2072A14D89A000A
:1068400002F1804202F5C04210B4D2F81005094CA2
:10685000012120F0010001FA03F3C2F81005C4F889
:1068600008335DF8044B7047704700BFD0400020EC
:106870000003005000600040F8B52B4E331804466A
:1068800093F92450FFF7C2FFEBB2072B04F0070087
:106890004FEAD40206F1550139D8244F05F5A27309
:1068A0004FF0000C47F823C08B5CC340DF0725D5B1
:1068B0001F2C8BBF04F01F0323461D4D4FF0A04536
:1068C00003F5E073022745F82370012303FA00F073
:1068D0008B5C23EA00038B5433194FF0FF3293F89B
:1068E0002430072B46F8232003D93344FF2283F8B2
:1068F0004C203444FF2384F82430F8BD4FF0FF339C
:10690000344446F82530FF2384F82430F8BD8D5CEC
:10691000C540ED07CCD44FF0FF3246F82320334476
:10692000FF2283F84C20E4E7D040002000600040C4
:10693000000300502DE9F04F0022164689B06C4B41
:106940006C4C6D48CDE9022235460122196841B1EF
:10695000D4F804130A4204D01D601968009100990C
:106960001643043383424FEA4202EFD1614BD3F81E
:106970007C11F2B2002900F0B5800021C3F87C112F
:10698000D3F87C3101934FF0A041019BD1F8101551
:106990005A4B0291D3F810350393F2B146F00046FA
:1069A000574F01250024A30003F180432E4203F535
:1069B000C0430BD0D3F8100557F82420D3F8101596
:1069C000C0F30520C1F3014102B190470134082C06
:1069D0004FEA4505E7D1002E21DA494CDFF81C814A
:1069E00094F954C04FF0FF3304AFCDE906330022D1
:1069F00004927A600125BCF1FF3F5FFA8CF10CF044
:106A00003F000CD008AB03EBD00A0CF0070E1AF8CD
:106A1000083C23FA0EF3DB074FEAD00902D409B091
:106A2000BDE8F08F2318890993F9243054F8232006
:106A3000002A49D0032949D01F288BBF0CF01F031F
:106A40000346C1464FF0A04909EB83091AF8183CE8
:106A5000D9F8006723FA0EF313F00103C6F3014AD5
:106A600020D0BAF1020FDAD1032938D04FF0000953
:106A700012B1904794F954C0B9F1000FCFD04FF044
:106A8000A043029AD3F81035D8F810159A4202D1D3
:106A9000039A8A42C3D0CDE90231049B0693059B39
:106AA0000793A8E7BAF1030FB9D10329DED14FF458
:106AB000003ED9F8003723F4403343EA0E03C9F807
:106AC00000374FF00109D3E70329A8D117F809309F
:106AD00005FA0EFB43EA0B0307F80930ACE74FF465
:106AE000403EE6E7002A7FF45BAF002E97DA74E7BA
:106AF0000061004000600040206100400003005041
:106B0000D04000200C4B1A78A2B901784FF0804099
:106B10000A4610B4C1F34001084CC0F8801502F0D9
:106B20000102C0F878250122216805485DF8044B70
:106B30001A707047034870473841002000E100E0B8
:106B40000000AD0B0C00AD0B014B02681A607047E2
:106B50002C4100204FF080434FF46072C3F80423AF
:106B6000704700BF10B54FF0804386B0D3F80443A0
:106B7000620703D5D3F80821002A62D1A30605D500
:106B80004FF08043D3F81421002A4FD1600605D579
:106B90004FF08043D3F81821002A3BD1210604D5B9
:106BA0004FF08043D3F81C214ABBE20504D54FF0D7
:106BB0008043D3F82021B2B9A30512D54FF080430A
:106BC000D3F824216AB10022C3F82421D3F8242168
:106BD000214B0592059A1B68022006B0BDE81040C3
:106BE000184706B010BD0022C3F820211A4AD3F876
:106BF0002031049301201368049A9847DCE70020B1
:106C0000C3F81C01144AD3F81C3103931368039A88
:106C10009847CAE70022C3F81821104AD3F8183160
:106C2000029301201368029A9847B7E70020C3F83F
:106C300014010A4AD3F8143101931368019A984752
:106C4000A4E70022C3F80821054AD3F808310093CD
:106C50001368009A984791E72C41002030410020AA
:106C6000344100202DE9F04F95B00DF10C0C0DF1E1
:106C70002C0E4A4D9846774666460023914605EB12
:106C800003140133D4F8182546F8042F082BD4F840
:106C90001C4547F8044FF2D10027D5F8F065D5F828
:106CA00040A601974A46D5F84496D5F84836009351
:106CB0004FF0010B394C019BC5F8FC7FC5F8FCBFB8
:106CC00004EB03155CF8047FC5F8187501335EF812
:106CD000047FC5F81C75082BF2D1009B304DC4F819
:106CE00040A6F6B2C4F84496C4F848361E9BC4F8D1
:106CF000F0652B60C4F8F015C4F8F4251E9A85F8E9
:106D000024000023C5E90133EB84002A42D0C4F8F3
:106D10000031D4F800210C920C9AC4F81431D4F844
:106D200014210492049AC4F80431D4F80431039372
:106D30002323039AC4F804331A4D184F4FEA086E00
:106D400000244FF0010C1BE02A7A95F80080F146F0
:106D500007EB04162301D6F8181503F1804303F559
:106D6000E04321F08071013441EA0901082CC6F8A2
:106D7000181505F10105C3F81425C3F8108506D0D0
:106D80000CFA04F20240DFD191469046E0E715B0DC
:106D9000BDE8F08F2323C4F80833CDE7007000402E
:106DA0004041002052410020002834D0F0B51A4F55
:106DB00085B00E460546012295FAA5F4B4FA84F38F
:106DC0009A4024B31C4625EA0205DB00012E0CBFC5
:106DD00003F58C7303F58E7303F1804303F5E043F1
:106DE0004FF0000C1A68012101A862B1C3F800C07D
:106DF0001B6800938DF804103B688DF808408DF8EF
:106E00000960009A9847002DD5D105B0F0BD4FF428
:106E100080732024DAE7704740410020184B93F834
:106E200022200AB11748704710B4174A174C6FF068
:106E30000041C2F8081394F80713EC2249090A41EB
:106E40004FF0010CD20783F822C006D5104B9A6888
:106E500092B11A6842F080021A60072808D8EC2321
:106E60000341DB0704D5094B4001C0B283F8070397
:106E700008485DF8044B704780232360EDE700BFAE
:106E8000404100200500AD0B0070004000E100E033
:106E9000705100200000AD0B2DE9F04F3D4E96F8EB
:106EA00022305A1E012A04D9042B02D03A48BDE8E8
:106EB000F08F3A4B4FF0000E86F823E0C6F812E050
:106EC000C3F804E0C3F808E0C3F80CE000295DD083
:106ED000DFF8D490F44674464FF001083BE010F818
:106EE0001AB0537892F802A01B014FEA0A2A0AF45A
:106EF000E06A03F0300343EA0A0392F803A00BF0C0
:106F0000030B4FEA0A3A0AF4805A43EA0B0343EAB6
:106F10000A0392F804A04FEA0A4A0AF4E02A43EA74
:106F20000A0392F805A04FEA0A5A0AF4801A43EAC3
:106F30000A0392F806A04FEA0A6A0AF0807A43EA46
:106F40000A03C7F81835D379AB74137AAB768C453E
:106F500086F823E01AD204EB840A00EB4A020CF113
:106F6000010C537A4EFA03F409EB0317F51808FAEB
:106F700003F35FFA8CFC4EEA030314F0010F5FFA8F
:106F800083FE6446ABD00648BDE8F08F0548BDE8F7
:106F9000F08F00BF404100200B00AD0B524100209C
:106FA0000400AD0B0000AD0B00700040F0B5204FA9
:106FB0001E4697F822305C1E012C85B004D9042BA4
:106FC00002D01C4805B0F0BD97F8233008240025F6
:106FD0004FF0010C10EA0C0F04D013EA0C0F24D070
:106FE0000135EDB2013C4FEA4C0CF3D1131E18BF32
:106FF00001230096FFF736FE96B10F4BC3F80C4104
:10700000D3F80C11039108220399C3F804230B4809
:107010003D82022387F8255087F8223005B0F0BD65
:10702000054B0822C3F80823F1E7054805B0F0BD79
:10703000404100200B00AD0B007000400000AD0B84
:107040000400AD0B214A93680BB12148704700F052
:107050006043B3F1005F1DD110B492F82540B1FB3D
:10706000F4F304FB1313BBB90BB2002B14DD92F83D
:107070002230052B14D8032B19D8022B1CD18C429B
:107080000AD1144B5060C3F82C069481C3F83046E3
:10709000114802E01148704711485DF8044B7047F1
:1070A000062B09D10B4BC3F82C06C3F830165368D6
:1070B00023B19060D181EBE70A48EEE7054B5060C1
:1070C000C3F82C069181C3F83016E1E74041002057
:1070D0000C00AD0B007000400000AD0B0A00AD0BC2
:1070E0000600AD0B0500AD0B4F494B68002B00F0BF
:1070F000948070B491F82230042B87B015D0062B01
:107100000CD0022B0DD1494A08680123C2F8003582
:10711000C0B1032081F82200136011E00B68002B3E
:107120004ED0434807B070BC7047404B08680122FE
:10713000C3F80025002834D0052081F822001A6009
:107140003C48EFE71360D2F80031002BFBD000235E
:10715000C2F80031D2F80021088A0092009A88B162
:10716000324A194601251C465560D2F80831002BD9
:10717000FBD0C2F80841D2F80831049301318842AB
:10718000049BF1D1294AD2F80431002BFBD0002313
:10719000C2F80431D2F8041101910199C2F8003506
:1071A000CEE7062081F822001A60D3F80021002AD9
:1071B000FBD00022C3F80021D3F800310293029BD8
:1071C0000C8A8CB10020194A012605465660D2F877
:1071D0000831002BFBD0C2F80851D2F808310593D2
:1071E0000130A042059BF1D1104BD3F80421B2B17C
:1071F0000020C3F80401D3F804418A6888600420A1
:10720000039481F82200C889039C4A60888142B1B6
:10721000C3F82C26C3F8300692E7074870470748A2
:1072200080E7C3F800258BE7404100200070004054
:107230000500AD0B0000AD0B0200AD0B0B00AD0B5C
:1072400070B55E4D5E4CD5F8003188B0002B4AD148
:107250005A4BD3F80C216AB10022C3F80C2194F8E0
:107260002220D3F80C110191032A08BF01220199B1
:1072700008BF5A60514BD3F8142152B10022C3F811
:107280001421D3F8141102910299D3F83436A38152
:10729000A2604A4DD5F80431002B36D194F826006F
:1072A000464D0021FFF780FD94F827000121FFF7EC
:1072B0007BFDD5F81031A3B10026C5F81061D5F8D3
:1072C000102104920123022284F822308DF8142028
:1072D0002368049A05A898471023C5F80833C5F811
:1072E000006508B070BD0023C5F8003194F8223065
:1072F000D5F800210092052B009A39D0062B29D011
:10730000032BA5D101236B60A2E70026C5F8046119
:10731000D5F80421636803920693A389ADF81C3065
:107320008DF81460039B236805A8984794F82230D1
:10733000032B17D0062BB1D1A368E289A281C4E93F
:107340000136002B2ED094F82830002BA6D0012334
:107350002B60A3E705AE032223688DF81420304686
:10736000984775E70223C5F8006584F8223095E751
:10737000042205AE23688DF8142030469847D5F8CE
:10738000F835DB0444BF01236B60A368062284F850
:107390002220002BDFD0094AE189C2F82C36C2F83E
:1073A0003016D8E704210522C5F8003505A8236862
:1073B00084F822108DF8142098476FE70070004081
:1073C000404100202DE9F04F0024DFF8A4B085B043
:1073D00007468A46904600F5A0764FF48035A146D0
:1073E000D7F804332B420ED03368E0B25BB1C7F854
:1073F0004853C7F80853C6F80090336801935BF808
:107400002A30019A98470134A0454FEA450506F114
:107410000406E5D1D7F80433DA0702D5D7F80031EE
:10742000C3B9D7F804339B0711D5D7F8043173B12A
:107430000023C7F80431D7F804210D4B0392039AB7
:1074400053F82A30052005B0BDE8F04F184705B0C5
:10745000BDE8F08F0023C7F80031054BD7F80021B5
:10746000029253F82A30029A04209847D9E700BFC5
:1074700078410020F0B5444C437944F82320434C34
:1074800003EB4302A25C0AB14148F0BD90F904202D
:1074900091F802E01F2A4FEA430C3ADDBEF1070FD4
:1074A0004FD8EC2545FA0EF5EF074AD502F16045B5
:1074B0004FEA4E1E05F561455FFA8EFE85F800E342
:1074C00095F800536D094FF0EC0E4EFA05FE1EF0D4
:1074D000010F0ED02F4DAE68002E40D04FEA521E45
:1074E00002F01F0755F82E600122BA40324345F8DA
:1074F0002E2002680888C2F808059C440879CA78DA
:1075000004EB0C03012104F80C109A705870224807
:10751000F0BD224DD540EE07EBD5BEF1070F15D8D3
:10752000EC2545FA0EF5ED0710D54FEA4E1E002A60
:107530005FFA8EFE21DA1A4D02F00F0205F802E022
:10754000D7E702F1604505F56145B9E7002AF8DAA9
:10755000144D02F00F0635442D7E6D09B3E7002A65
:10756000C7DB114D5609012302F01F02934045F875
:10757000263043794FEA430CBBE702F1604505F53D
:10758000614585F800E39BE7784100206C410020CD
:107590000500AD0B705100200000AD0BFC06FFBDD7
:1075A00014ED00E0FCEC00E000E100E090F90430B4
:1075B0001F2B10B51FDD1C4A916831B34FEA531ED3
:1075C0004FF0010C52F82E1003F01F030CFA03F3D6
:1075D00021EA030342F82E300368144A012159605E
:1075E000C3F84823C3F808234379114A03EB430344
:1075F0000021D15410BD0F4ADA40D207ECD50A4A17
:1076000091680029DAD1002BE6DB5A090A4C0121E6
:10761000203203F01F0301FA03F344F82230BFF3D2
:107620004F8FBFF36F8FD7E77051002003000F001B
:107630006C410020FC06FFBD00E100E010B443797E
:10764000054C026803EB43030220E05401215DF87E
:10765000044B1160704700BF6C4100204379016802
:1076600010B403EB4303034C0122E2545DF8044BD6
:107670004A6070476C41002002684FF480338B40B1
:10768000C2F84833D2F80403034206D050318900CF
:1076900089B2C2F8083353580BB905487047002324
:1076A000535082B0535801930248019B02B0704777
:1076B0000000AD0B0700AD0BF0B590F805C0214FF1
:1076C00004680CEB4C0038444FF4803546788D400C
:1076D000C4F8485383B022F07F42C4F80853E6B19F
:1076E00001F5A8764FEA4C0044F82620D4F804654A
:1076F0006044A6EB020EB24207EB000288BF0EF117
:10770000FF1E927888BF0EF57F4E724516DC53B986
:107710000D48C4F8445303B0F0BD01F5A87044F817
:107720002020002BF4D05031890089B2002363500F
:1077300063580193019BC4F80453E9E7034803B07D
:10774000F0BD00BF6C4100200000AD0B0700AD0B89
:1077500010B403680024C3F8044183B0D3F80401D3
:10776000019002220198C3F8442309B1C3F804230D
:1077700003B05DF8044B7047024803220021FFF775
:1077800021BE00BF00B00040024804220121FFF7E3
:1077900019BE00BF00100140024804220221FFF779
:1077A00011BE00BF00400240014B1B68184700BFDC
:1077B0008C410020014B1B68184700BF844100200A
:1077C000244B984241D0B0F1402F40D1224AF0B42E
:1077D000EFF3108572B6214B9C68002C30D1204805
:1077E000204F01269E60D0F880603E401E60C0F8A9
:1077F0008070D0F884605E604FF0FF36C0F884601F
:1078000005B962B6107920B19A68DAB91648F0BCA9
:1078100070471160012111719A6872B16CB9EFF370
:10782000108172B60E4A1C6814605C6854600022B5
:107830009A6001B962B60028E8D10C48F0BC7047E4
:107840000124DDE7002CEAD0E0E7094ABFE707485A
:10785000704700BF0030004084410020705100207C
:1078600000E100E0FC06FFBD0B00AD0B0000AD0B1E
:107870008C410020064B984207D0B0F1402F03D135
:10788000044A0023136013717047034AF9E700BFED
:1078900000300040844100208C410020F0B590F879
:1078A00004E04D4E0EEB4E0306EB830C83B09CF8C8
:1078B0000840002C71D19B000568F2504B68CCF851
:1078C000043042794FEA4E0752B105F5A07303EB3D
:1078D000820C1C6053F8042B01929C45019AF8D14C
:1078E00045F307331F2BCA782EDC3C4CDC40E40701
:1078F0000DD5072A54D8EC241441E40750D5520181
:10790000002BD2B261DA364803F00F03C254D5F827
:1079100004354A78334862F30103C5F804358A78A0
:10792000D5F8083562F30103C5F808350A78D5F8AB
:107930001035774406EB8707012462F303033C729A
:10794000C5F8103503B0F0BD072A0CD8EC2414415B
:10795000E40708D503F16044520104F56144D2B252
:1079600084F8002303E003F1604404F5614494F8D3
:1079700000436409EC222241D207C8D51A4A946810
:10798000BCB1580903F01F0C52F82040012303FA40
:107990000CF3234342F82030B9E7144803B0F0BD9C
:1079A000002BE0DA124A03F00F042244147E64092B
:1079B000E0E7002BABDB0F4A5C0903F01F05012356
:1079C000AB4042F824300568A1E703F1604404F5B8
:1079D000614484F80023CAE794410020FC06FFBDFF
:1079E00014ED00E00000AD0B705100200500AD0B60
:1079F000FCEC00E000E100E0036843F307321F2ADB
:107A000010B523DD1E498C6854B34FEA521E4FF067
:107A1000010C51F82E4002F01F020CFA02F224EA87
:107A2000020241F82E2000244FF0FF32D3F800125A
:107A3000C3F80042C3F808230279124902EB42025C
:107A400001EB820201211961147210BD0E49D1406F
:107A5000C907E8D50A498C68002CD6D1002AE2DB98
:107A600053090A4C0121203302F01F0201FA02F2ED
:107A700044F82320BFF34F8FBFF36F8F0368D2E723
:107A80007051002094410020FC06FFBD00E100E0A1
:107A90000379054A016803EB430302EB83030120EA
:107AA000022208601A727047944100200379054A47
:107AB000016803EB430302EB830301220A611A729C
:107AC000704700BF944100208B0040330268DBB256
:107AD0000120D05001F5A87152F82100704700BF75
:107AE000006830B440F2011CD0F800420CFA01FCEE
:107AF00024EA0C04C0F80042D0F8004282B02343CC
:107B00009DF81050C0F800324FF480338B4085B19F
:107B10008C0004F5A0740025055104590194019CC2
:107B2000C0F8043301F5A87140F8212002B030BC40
:107B30007047C0F80833F5E72DE9F041114D124FB9
:107B4000DFF8488082B000244FF480362B6806FAB4
:107B500004F27BB1D7F80433A5F500401A424FF088
:107B6000000180B206D029602B680193D8E900316A
:107B7000019A98470134042C05F10405E6D102B0BE
:107B8000BDE8F08140810040008000409441002029
:107B90002DE9F041114D124FDFF8488082B00024EA
:107BA0004FF480362B6806FA04F27BB1D7F8043321
:107BB00005F5E0401A424FF0000180B206D029607E
:107BC0002B680193D8E90331019A98470134042CBA
:107BD00005F10405E6D102B0BDE8F0814091004016
:107BE00000900040944100202DE9F041114D124FCA
:107BF000DFF8488082B000244FF480362B6806FA04
:107C000004F27BB1D7F8043305F5C0401A424FF0B7
:107C1000000180B206D029602B680193D8E90631B3
:107C2000019A98470134042C05F10405E6D102B00D
:107C3000BDE8F08140A1004000A000409441002038
:107C40002DE9F041114D124FDFF8488082B0002439
:107C50004FF480362B6806FA04F27BB1D7F8043370
:107C600005F5C0401A424FF0000180B206D02960ED
:107C70002B680193D8E90931019A98470134062C01
:107C800005F10405E6D102B0BDE8F08140A1014054
:107C900000A00140944100202DE9F041114D124F08
:107CA000DFF8488082B000244FF480362B6806FA53
:107CB00004F27BB1D7F8043305F5A0401A424FF027
:107CC000000180B206D029602B680193D8E90C31FD
:107CD000019A98470134062C05F10405E6D102B05B
:107CE000BDE8F08140B1014000B001409441002066
:107CF00030B491F82F308AB0ABB9D0F824214C6B56
:107D00008D6A002A31D0C0F82431D0F82431049390
:107D10000123049A436181F82F30AC4216D0012030
:107D20000AB030BC70470023C0F82431D0F82421B9
:107D30000392039AC0F81C31D0F81C210292029AD7
:107D4000C0F80831D0F808310193019BD0F8043114
:107D5000002BE4D00023C0F80431D0F804210992AC
:107D6000099A81F82D300020DAE7D0F81C31A3B150
:107D7000C0F81C21D0F81C310593059BD0F82431A4
:107D8000002B34D0C0F82421D0F8243106930123ED
:107D9000069A436181F82F30BFE7D0F80821002A06
:107DA000BBD0C0F80831D0F808210792079AD0F864
:107DB000242152B1C0F82431D0F824310893012392
:107DC000089A436181F82F30A7E7AC42A5D24B6AED
:107DD000D0F818251A554B6B8A6A0133541EA342FA
:107DE0004B631FD0934224D00123036297E7AC4238
:107DF00006D24A6A631C125DC0F81C254B638EE7ED
:107E000091F82C303BB90B6A13F0400F4FF001038F
:107E100004D1436181E70123C361A4E7C36181F811
:107E20002D30A0E70B6A5A06DED40223C0F80032D8
:107E3000DAE70B6A5B067FF572AF022381F82D301B
:107E400091E700BF10B586B0002342F21072019294
:107E5000C0F80431D0F804210592059AC0F8243105
:107E6000D0F824210492049AC0F81C31D0F81C21C7
:107E70000392039AC0F808318A6A0446D0F80801D0
:107E80000290012A02984B6381F82F3038D00123E9
:107E9000C4F800320123236291F82D20022A18BF72
:107EA00023600B6843B140F286238B608B682048C7
:107EB000C4F8043306B010BD019B002B06DC12E0B1
:107EC000019B013B0193019B002B04DD2046FFF742
:107ED0000FFF0028F4D191F82F3023B1D4F8C43427
:107EE000C4F8C4349BB91248019B002BE2DC114852
:107EF00000220523C4F80025C4F8003506B010BDE3
:107F00000B6A5B06C3D40223C4F80032C2E70949F6
:107F1000094A0A4813F0010F08BF084613F0020F80
:107F200018BF1046013213F0040F18BF1046DBE7EC
:107F30000000AD0B0100AD0B0100AE0B0000AE0B5D
:107F400010B586B0002342F210720192C0F80431DD
:107F5000D0F804210592059AC0F82431D0F82421E4
:107F60000492049AC0F81C31D0F81C210392039AA1
:107F7000C0F80831D0F80821029204460122029884
:107F8000C4F800324B6381F82F30226291F82D3013
:107F900093428B6A18BFA26083B14A6A01231278A8
:107FA000C4F81C254B630B68CBB140F286238B6071
:107FB0008B682748C4F8043306B010BD91F82C3004
:107FC000002B41D10B6A13F0400F4FF0010316BF95
:107FD000E361636181F82D300B68002BE5D1019BD3
:107FE000002B06DC12E0019B013B0193019B002B5F
:107FF00004DD2046FFF77CFE0028F4D191F82F30F5
:1080000023B1D4F8C434C4F8C43463B91048019B14
:10801000002BD1DC0F4800220523C4F80025C4F84A
:10802000003506B010BD0B490B4A0C4813F0010F88
:1080300008BF084613F0020F18BF1046013213F0B4
:10804000040F18BF1046E2E70123E361ABE700BF6E
:108050000000AD0B0100AD0B0100AE0B0000AE0B3C
:10806000F0B591F82F300E6A87B08C466BBB0A7B57
:10807000941E012C14D900230CF10C058DF800304E
:108080000FCD01AC0FC42B682360002372078CF85E
:10809000303003D4DCE900316846984707B0F0BDC2
:1080A0004D6A8C69A542E6D181F82D30CB694B62CF
:1080B000C6F340164B6981F82C60032A8B6222D0EC
:1080C00007B0BDE8F040FFF7BDBE01F10C05D0F8E8
:1080D000C47486460FCD01AC0FC42B682360BB0768
:1080E000CEF8C47403D501238DF80030CDE77807AE
:1080F00003D502238DF80030C7E7F90744BF0323F7
:108100008DF80030C1E707B0BDE8F040FFF718BFB9
:1081100008B505490548FFF7EBFD20B9BDE8084063
:108120000248FFF79DBF08BDD0410020003000404D
:1081300008B506494FF04020FFF7DAFD28B9BDE841
:1081400008404FF04020FFF78BBF08BD0C420020D5
:108150002DE9F04F04799A46654BC4EB041603EB06
:10816000860983B099F82EB0904622010192BBF1A6
:10817000000F03D05F4803B0BDE8F08F0F465E49A3
:10818000054651F824100068FFF71AFB5B49884246
:1081900075D1D7F800C0564B797B89F83810B600F6
:1081A000BCF11F0F8CBF0CF01F01614643F8068025
:1081B0007E6888BFDFF860E1C9F808B098BF4FF06B
:1081C000A04E01F5E07189F830B01F2EC9F804A067
:1081D00089F82DB089F831B040F20C694EF8219041
:1081E0008CBF06F01F0EB646296888BFDFF82891BD
:1081F000019A0EF5E07598BF4FF0A049D7F808E056
:1082000040F20C6A49F825A0C1F808C5C1F80C6510
:10821000C1F824E5B8F1000F28D041F307311F2938
:108220003D7B30DD072D41D8EC262E41F6073DD5AC
:1082300001F160466D0106F56146EDB286F8005326
:1082400096F800637609EC253541ED070ED52C4DE7
:10825000AE68002E38D04E0901F01F0C55F826707C
:10826000012101FA0CF1394345F82610121B03EBEA
:108270008202012382F82E3003B0BDE8F08F21483E
:1082800003B0BDE8F08F204ECE40F707EED5072DA6
:1082900011D8EC262E41F6070DD56D010029EDB25F
:1082A0001EDA1A4E01F00F017554DFE701F1604646
:1082B00006F56146C4E70029F8DA154D01F00F060E
:1082C00035442E7E7609BEE70029CFDB114E4F09DB
:1082D000012501F01F0105FA01F146F82710C5E755
:1082E00001F1604606F5614686F80053A8E700BF35
:1082F000D04100200500AD0B281B09000000AD0B8C
:10830000705100200B00AD0BFC06FFBD14ED00E02A
:10831000FCEC00E000E100E000030050F8B5057956
:108320003D4CC5EB0513064654F8233000682F0179
:10833000CBB140F307331F2B55DC384ADA40D20764
:1083400011D5374A9168002962D04FEA531E4FF089
:10835000010C52F82E1003F01F030CFA03F321EA6C
:10836000030342F82E302B462E4AC0F80823D0F8DB
:108370000022C3EB031322F0030204EB8303C0F8D3
:1083800000220022C0F80025012283F82E20FFF7EA
:1083900071FA7B1B04EB830393F83830E3B932683E
:1083A000D2F808351F2B86BF03F01F031E494FF07C
:1083B000A04103F5E073022041F82300D2F80C3508
:1083C0001F2B86BF03F01F03174A4FF0A04203F58F
:1083D000E073022142F823107F1B04EB8704002383
:1083E00084F82E30F8BD0E4A91680029ADD15A09A3
:1083F0000E482032012103F01F0301FA03F340F875
:108400002230BFF34F8FBFF36F8F33793068ABE704
:10841000002BA8DBEBE700BFD0410020FC06FFBD2E
:1084200070510020864204000003005000E100E08B
:108430000379064A0168C3EB031302EB83030520AB
:108440000222C1F8000583F82E207047D041002099
:1084500010B4036802790C4CC3F808430B49D3F8F5
:1084600000025DF8044BC2EB021201EB82024FF0F6
:10847000010C20F003010020C3F8001282F82EC086
:10848000C3F80005704700BF86420400D0410020B9
:108490002DE9F84F0479384FD0F800A0C4EB04134D
:1084A00007EB83038C4693F82D30012B16464FEAD9
:1084B00004154AD0022B02D10B78012B48D1A5EB31
:1084C000040E2E4BCAF8083307EB8E0E9EF83030A0
:1084D000002B45D186F00403C3F380038EF83030BF
:1084E000CEF82060E146B9E80F000EF10C08A8E8CC
:1084F0000F00D9F80030C8F80030DCF80430CEF8AE
:108500002830DCF80C30CEF824309CF80130CAF862
:1085100088359CF80030C4EB041B012B07EB8B0B58
:1085200025D083B9C6F340162B1B07EB83035946AE
:10853000504683F82C60FFF703FD2D1BAD007B59DF
:108540004BB1BDE8F88F0126EEE70B78012BB6D1D1
:108550000B48BDE8F88F2F4487F83030BDE8F88F1E
:10856000DEF808300748CAF80433BDE8F88F5946EA
:108570005046FFF767FCE0E7D04100208642040048
:108580000500AD0B0B00AD0B30B5D0F8103185B048
:1085900004460D464BB10023C0F81031D0F810212D
:1085A0004B7A0092009A5A073DD4D4F814314BB15B
:1085B0000023C4F814316B7AD4F8142101921B07FC
:1085C000019A29D4D4F81C3153B10023C4F81C31CA
:1085D000687AD4F81C31029310F01000029B15D079
:1085E000D4F8043183B10023C4F80431D4F8042151
:1085F0002B680392012203992A722BB16968032028
:1086000005B0BDE83040184705B030BD2B68002BE1
:10861000E6D069689847E3E72B68002BD2D06968F9
:1086200002209847CEE70B68002BBED04968012096
:108630009847BAE710B402240C720C684A7283B0EF
:1086400074B112F0040F14BF92218221140748BFA5
:1086500041F02001D40648BF21F08001C0F800138A
:108660000021C0F80411D0F8044101941206019CC5
:108670005BBF0122C250C018084603B05DF8044B2E
:10868000704700BF2DE9F04F0479814E04EB44059B
:1086900006EB850C89B09CF808E0BEF1000F03D012
:1086A0007C4809B0BDE8F08FAF00DFF800A2F251BE
:1086B000CCF80430650001F1FF3E0DF1100CCF1C29
:1086C0004FF003081EF8019FB9F1FF0F76D029F093
:1086D000800319F0800FCCF8003074D11F2B7FD9A4
:1086E00009F01F03DFF8C4B14FF0010909FA03F9DB
:1086F000CBF80C95D14603F5E07349F82380BE45CD
:108700000CF1040CDED103680498C3F860050598E9
:10871000C3F864050698C3F868050798C3F86C05A4
:108720000120C3F800058F79088991F805C0C3F8C6
:108730000CC5C3F80475C3F808054889C3F81005CB
:108740000020C3F80002C3F80003C3F81C01D3F8EB
:108750001C710497049FC3F81001D3F8107103979C
:10876000039FC3F81401D3F814710297029FC3F852
:108770000401D3F8040101900198B2B143F3073327
:108780001F2B0A7940DC4449D940CF070DD5072A71
:108790005DD8EC211141C80759D55201002BD2B246
:1087A0006EDA3E4903F00F03CA5425443C4806EBF9
:1087B000850501232B7209B0BDE8F08F4FF0FF3320
:1087C000CCF800309BE71F2B13D84FF001094FF076
:1087D000A04B09FA03F9CBF808954FF0A0498AE7B6
:1087E0004FF001094FF0A04B09FA03F9CBF80C95B3
:1087F000F3E709F01F03DFF8B4B04FF0010909FAFD
:1088000003F9CBF8089575E7072A28D8EC21114120
:10881000C90724D503F16041520101F56141D2B28B
:1088200081F8002391F800134909EC220A41D2078C
:10883000BBD51C4A9168B9B1590903F01F0752F81A
:1088400021000123BB40034342F82130ADE7002B58
:1088500005DA124A03F00F01515C4909E5E703F11B
:10886000604101F56141DDE7002B9EDB0E495809AF
:10887000012203F01F0302FA03F341F8203094E7CA
:1088800003F1604101F5614181F80023CAE700BFAF
:10889000484200200500AD0BFC06FFBD14ED00E0D2
:1088A0000000AD0B7051002000E100E0000300501B
:1088B00070B50179204A046801EB410302EB8303A0
:1088C0004FEA410C1B7A44F307331F2B18DD1B4D75
:1088D000AE680EB35E094FF0010E55F8260003F0A6
:1088E0001F030EFA03F320EA030345F826300CEBCE
:1088F000010302EB83020023C4F80035137270BD3C
:108900000F4D25FA03FE1EF0010FF0D00B4DAE689F
:10891000002EDFD1002BEADB5C090A4E2034012552
:1089200003F01F0305FA03F346F82430BFF34F8F1B
:10893000BFF36F8F0468DAE74842002070510020CF
:10894000FC06FFBD00E100E0F0B590F804C000684F
:108950008E462349BEF804700CEB4C04DEE9026538
:1089600001EB84040CEB4C0C247A01EB8C0C02F030
:108970000104DEF80010C0F8201504EB5202C0F824
:108980002475C0F82865C0F82C55C0F84015D907E3
:10899000C0F84475C0F84865C0F84C55C0F81425B7
:1089A000DAB20CD413F002030AD09CB10823C0F849
:1089B0000032BDE8F0400C236146FFF73BBE1023B8
:1089C000C0F80032002CF4D10823BDE8F040614625
:1089D000FFF730BE0423C0F800320823F5E700BFDC
:1089E0004842002030B490F804C01E4C05680CEBDF
:1089F0004C0004EB80034FEA4C02187A187A187A7C
:108A0000022805D0D5F804312BB9012030BC7047BD
:108A1000D5F8040128B1624404EB820201231372E9
:108A2000F3E701206860187A187A022809D0D5F88F
:108A300004110029E9D0624404EB820301221A7276
:108A4000E3E7D5F804010028F5D108460029DDD078
:108A5000197A197A0229EAD1D5F804110029EAD144
:108A6000F6E700BF4842002001490248FFF78CBDED
:108A70004842002000C0014001490248FFF784BD80
:108A8000544200200010024001490248FFF77CBD1B
:108A9000604200200020024001490248FFF774BDF7
:108AA0006C42002000D002404FF04023D3F8182140
:108AB00002B9704710B400211A4AC3F81811D3F84C
:108AC000181192F8433083B0FF2B019101990ED019
:108AD00092F84210C1B11F2B86BF134803F01F0349
:108AE0004FF0A040012101FA03F3C0F80C35D2E9A0
:108AF000094100230D4882F8413082F82C3023468A
:108B000003B05DF8044B18471F2B86BF064803F0DF
:108B10001F034FF0A040012101FA03F3C0F808350C
:108B2000E5E700BF7842002000030050A442002087
:108B30001D4BD3F8182102B9704710B400211B4A0D
:108B4000C3F81811D3F8181192F88B3083B0FF2BAB
:108B5000019101990ED092F88A10C1B11F2B86BFE6
:108B6000134803F01F034FF0A040012101FA03F363
:108B7000C0F80C35D2E91B4100230E4882F8893039
:108B800082F87430234603B05DF8044B18471F2B5E
:108B900086BF074803F01F034FF0A040012101FAF0
:108BA00003F3C0F80835E5E700F002407842002002
:108BB00000030050EC4200201D4BD3F8182102B9ED
:108BC000704710B400211B4AC3F81811D3F81811CC
:108BD00092F8673083B0FF2B019101990ED092F883
:108BE0006610C1B11F2B86BF134803F01F034FF05F
:108BF000A040012101FA03F3C0F80C35D2E912417B
:108C000000230E4882F8653082F85030234603B0C6
:108C10005DF8044B18471F2B86BF074803F01F035E
:108C20004FF0A040012101FA03F3C0F80835E5E751
:108C3000003002407842002000030050C84200206B
:108C40001B4BD3F8182102B9704710B40021194A00
:108C5000C3F81811D3F81811D37F83B0FF2B0191FB
:108C600001990DD0917FB1B11F2B86BF124803F03F
:108C70001F034FF0A040012101FA03F3C0F80C35A7
:108C8000D2E9004100230D4853771372234603B005
:108C90005DF8044B18471F2B86BF074803F01F03DE
:108CA0004FF0A040012101FA03F3C0F80835E7E7CF
:108CB0000030004078420020000300508042002035
:108CC0002DE9F04F0579DFF820A305EBC5079046A5
:108CD0000AEB870283B09946137F00921BB1B84814
:108CE00003B0BDE8F08F036801930C46B549064612
:108CF00051F825101846FEF763FDB34988426CD140
:108D0000BF00009A4AF80780C2F80490237B0093C2
:108D1000012B2178019B4FEAC50B62D91F2940F234
:108D2000DD8001F01F0EDFF8A4C2012202FA0EF26C
:108D3000CCF808257246DFF894E2D2B202F5E07270
:108D40004FF0010C4EF822C06278FF2A00F0BB8081
:108D50001F2A914687BFDFF874C202F01F024A46FD
:108D60004FF0A04C4FF0010E0EFA02FE02F5E07239
:108D7000CCF80CE54FF0030E4CF822E0A278FF2A65
:108D800000F0A4801F2A94F80EC088BF8F4F019274
:108D90008EBF02F01F0E96464FF0A0470EF5E07E04
:108DA0004FEA8C0C47F82EC00BEB050C0AEB8C0C31
:108DB0008CF82020E2788CF81F20FF2A39D0277900
:108DC000E7B11F2A00F2D1804FF0010C4FF0A04E06
:108DD0000CFA02FCCEF80CC5C4E07D4803B0BDE837
:108DE000F08F1F2900F2AB8001224FF0A04C8A4087
:108DF000CCF80C250A464FF0A04E9FE71F2A40F200
:108E0000A980DFF8C8E102F01F024FF0010C0CFA54
:108E100002FCCEF808C5DFF8B4C10BEB050E0AEB77
:108E20008E0E02F5E0728EF81E704FF0030E4CF8B5
:108E300022E0019AC3F80815C3F80C95C3F8102571
:108E4000A268C3F82425627B0099003A18BF01226A
:108E5000022971D003296CD0012901D142F002020C
:108E6000C3F85425A279C3F8C025B8F1000F31D05A
:108E700032684021C3F8041342F307320721C3F8D4
:108E800000151F2A637930DC5249D140CE070ED538
:108E9000072B7AD8EC211941CC0776D55B01002A43
:108EA000DBB280F286804C4902F00F028B54AB4457
:108EB0000AEB8B0B002201238BF81D208BF81C3052
:108EC00003B0BDE8F08F4FF0FF3957E74FF0FF37A1
:108ED000019769E70722C3F80025E8E701224FF070
:108EE000A04C8A40CCF8082584E7072B48D8EC2111
:108EF0001941C90744D502F160415B0101F56141A7
:108F0000DBB281F8003391F800134909EC230B41DF
:108F1000DB07CCD531498B68002B3FD054090123A6
:108F200051F8246002F01F029340334341F824308B
:108F3000BDE742F0060293E742F0040290E701F039
:108F40001F0EDFF888C0012202FA0EF2CCF80C25C1
:108F50007246F0E64FF0010C4FF0A04E0CFA02FC06
:108F6000CEF808C54FF0A04C57E7DFF860E002F0FC
:108F70001F024FF0010C0CFA02FCCEF80CC54AE7B8
:108F800002F1604101F56141BDE7002AF8DA144BB6
:108F900002F00F010B44197E4909B7E7002A86DB6E
:108FA00010495409012302F01F02934041F8243074
:108FB0007DE702F1604101F5614181F80033A2E7EC
:108FC0000500AD0B301B09000000AD0B0003005085
:108FD0000B00AD0BFC06FFBD14ED00E0705100204E
:108FE000FCEC00E000E100E078420020F8B50579F3
:108FF0003A4C05EBC502034654F822200068EE0007
:1090000062B340F307321F2A4CDC3549D140C9070F
:1090100011D534498F68002F5DD04FEA521E4FF0B2
:10902000010C51F82E3002F01F020CFA02F223EA72
:10903000020341F82E302C4BC0F80833731904EBAF
:1090400083035B7F53B101234361D0F80431002BCC
:10905000FBD0731904EB830300225A77731904EBD6
:10906000830393F82030FF2B0BD01F2B86BF03F018
:109070001F031E494FF0A04103F5E073022241F89F
:1090800023200023C0F80035194B984208BF012364
:109090002E4408BF436004EB8604FEF7EBFB00237D
:1090A0002377F8BD0F498F68002FB6D15109114FB2
:1090B0002031012002F01F0200FA02F247F82120BD
:1090C000BFF34F8FBFF36F8F7219186854F82230B7
:1090D000002BB0D1C2E7002AADDBE7E778420020E1
:1090E000FC06FFBD70510020520108000003005033
:1090F00000F0024000E100E02DE9F04F0479604FFC
:1091000004EBC403964607EB83028C46517F83B081
:10911000002940F0A2809B00054657F803904FEAD3
:10912000C408B9F1000F04D01EF0140F04BF0123CE
:10913000537708EB040607EB86069CE80F0096F8C9
:109140001FA006F10C0BBAF1FF0F8BE80F0010D037
:10915000B27F5346002A58D0BAF11F0F86BF494943
:109160000AF01F034FF0A041012202FA03F3C1F8F5
:109170000835DCF800202B6872B102F06041B1F1D3
:10918000005F09D0A04407EB880800233E4888F818
:109190001D3003B0BDE8F08FDCF8081021B101F0FC
:1091A0006040B0F1005FEDD1DCF80400C3F8442565
:1091B000DCF80C20C3F84805C3F83415C3F838258B
:1091C0000022C3F81821D3F818210192019A1EF049
:1091D000010218BF0122C3F850251EF0020218BF79
:1091E00001221EF0080FC3F8402504BF01221A61B6
:1091F000B9F1000F17D040221EF0040F14BFC3F8BE
:109200000823C3F804232148C3E7BAF11F0F86BF20
:109210001C490AF01F034FF0A041012202FA03F398
:10922000C1F80C35A5E7D3F81821002AFBD0BAF114
:10923000FF0FE8D0A04407EB8807BB7F8BB1BAF1E2
:109240001F0F86BF0F4A0AF01F0A4FF0A0420123EA
:1092500003FA0AF3C2F80C35D5E70D4803B0BDE8B0
:10926000F08FBAF11F0F86BF064A0AF01F0A4FF0AF
:10927000A042012303FA0AF3C2F80835C3E700BF8E
:1092800078420020000300500A00AD0B0000AD0B37
:109290000B00AD0B0000000030B56F4AD2F804336C
:1092A00099058BB068D5D2F82431002B64D0002109
:1092B0006A4BC2F82411D2F8240193F829100190C6
:1092C0004FF40170019CC2F8080309B901215160F3
:1092D00061499C69D86802229FED5D7B8DF818205A
:1092E000D1F88024C1F88024CDE90704099283EDE8
:1092F000067BD3E9001206A89047574AD2F81C31E2
:10930000C3B1564B5869196A88426AD993F8281034
:1093100001F0FF00002964D1C2F81C01D2F81C1131
:10932000039103999C68186A196A205C01311962DB
:10933000C2F81C05484AD2F84431DBB10021474B42
:10934000C2F84411D2F8440193F829100090009813
:1093500009B1012111609A6962B1D8685C6A002183
:109360000122CDE9070499618DF8182006A8D3E9F8
:10937000001290470BB030BD374AD2F804335B0778
:10938000BBD5D2F80831002BB7D0344B99690029EE
:109390003ED00021C2F80811D2F8081104910499B6
:1093A000D868596AD2F8182542545A6A9969013224
:1093B0005A625A6A8A42A0D1DA69D868D3E900149D
:1093C000002A2ED09A61079000221869D860DA61CD
:1093D000586A5A62012308908DF8183006A8A047F1
:1093E0008BE71D4A0020C2F81C01D2F81C21029212
:1093F000029A5A69002A9DD0D3E901215C698DF84F
:109400001800CDE907145861196806A8904791E73C
:10941000C2F80811D2F8080105900598D2F818256D
:10942000C7E793F8292012B90B4A012555600A4A6B
:109430004FF40175C2F80853002207909A61586AE8
:10944000089001238DF8183006A8A04755E700BF03
:109450000000000000000000002000400843002041
:109460002DE9F0438E4E07792C2303FB076383B06D
:1094700093F82A301BB18B4803B0BDE8F083044653
:109480000D46006888499046FEF79AF9874B984246
:1094900003D0874803B0BDE8F083296822684B1CDD
:1094A00014D01F2987BFDFF824E201F01F030B4609
:1094B0004FF0A04E4FF0010C0CFA03FC03F5E073E3
:1094C000CEF808C54FF0030C4EF823C0D5F804C001
:1094D000BCF1FF3F0FD0BCF11F0F8BBF0CF01F037F
:1094E0006346DFF8E8E14FF0A04E03F5E0734FF07C
:1094F00000094EF823906B69C2F8243595F81BE0FB
:10950000AB7E43EA0E0395F819E04EEA0303BEF181
:10951000010FC2F86C35C2F814C5C2F80C1567D03B
:109520002C2307FB03F3F218C2F804802A69F250D7
:10953000B8F1000F45D02368297E0022C3F81C2112
:10954000D3F81C510095009DC3F84421D3F8442161
:109550000192019A574AC3F8042343F307321F2AA2
:1095600076DD072900F28780EC250D41ED0740F1FB
:10957000828002F16045490105F56145C9B285F86F
:10958000001395F800536D09EC212941C90719D53D
:1095900049498D685DB1540902F01F0C51F82450FF
:1095A000012202FA0CF22A4341F824200AE0002AA0
:1095B00008DB42495509012302F01F02934041F89C
:1095C000253023680422C3F800252C2307FB03F36E
:1095D00003F11801002233447418725001216260B3
:1095E00083F829205A6183F82A1003B0BDE8F0837C
:1095F000AB68591C0ED01F2B8BBF03F01F011946FF
:10960000DFF8C8C04FF0A04C01F5E0714FF0000E3C
:109610004CF821E0E968B1F1FF3F14D01F2987BF62
:10962000DFF8A89001F01F0C8C464FF0A0494FF0D6
:10963000010E0EFA0CFE0CF5E07CC9F808E54FF0BF
:10964000030E49F82CE0C2F80815C2F8103567E798
:109650001B4DD540ED07B5D5072911D8EC250D4197
:10966000ED070DD54901002AC9B212DA154C02F0F6
:109670000F02A154A6E702F1604505F5614580E7B8
:10968000002AF8DA104902F00F0529440D7E6D0911
:109690007AE702F1604505F5614585F8001370E74A
:1096A000084300200500AD0B999202000000AD0BAD
:1096B0000B00AD0B800002007051002000E100E0C3
:1096C000FC06FFBD14ED00E0FCEC00E000030050E0
:1096D000F0B42E4D90F804C02C2303FB0C5384B03F
:1096E0005C69002C4BD15A6102681C6283F82840E7
:1096F000C2F81C41D2F81C01029002989960012026
:109700009060C2F81C41D2F81C0101900198186ABF
:109710000C5C186A01301862C2F81C455C681CB108
:109720001B4804B0F0BC70475E69186A864203D8D3
:1097300016E093F8280030BBD2F81C010028F8D0BE
:10974000C2F81C41D2F81C0103900398186A0F5C00
:10975000186A01301862C2F81C75186A8642EBD884
:10976000D2F81C31002BFBD001230948D3602C23F5
:1097700003FB0C5500236B6104B0F0BC7047054837
:1097800004B0F0BC70470448F1E700BF0843002074
:109790000000AD0B0B00AD0B0800AD0B0279044BC4
:1097A0002C2101FB02335869003818BF0120704793
:1097B00008430020F0B54B4E90F804C02C2404FB65
:1097C0000C6487B06568A7698DB103684FF4017EAA
:1097D000C3F808E377B1E06900287AD12161E2613A
:1097E0004FF40172C3F804233F4807B0F0BD002FC7
:1097F00066D103682C2404FB0C64E16094F8291002
:10980000A26100226262E26171B90268C2F82411A9
:10981000D2F824410294029CC2F80811D2F808112F
:109820000391039901211160002DD9D10022C3F8C1
:109830004421D3F84421019201992C2202FB0C62AD
:10984000D3F82411D3F80851D3F8444165B954EA48
:109850000105F5D02C2202FB0C620020906100294A
:109860003CD0224807B0F0BD54EA0105F2D191691D
:10987000A1B1C3F80851D3F8081104910499D46830
:10988000516AD3F818356354536A916901335362AE
:10989000536A99420368D3D8956108E0C3F8081168
:1098A000D3F8081105910599D3F81815526A2C229E
:1098B00002FB0C6292F8292042B101221A6093E760
:1098C000E36943B903682161E261AFE701225A60AD
:1098D0008AE7C3F804E3064807B0F0BD002CE6D0E1
:1098E000044882E7084300200000AD0B0100AD0BE7
:1098F0000B00AD0B0800AD0B02790F4B2C2101FBC7
:10990000023393F8292002B1704710B4016883B084
:10991000C1F82421D1F824410094009CC1F8082109
:10992000D1F808210192019A0120086083F82900EA
:1099300003B05DF8044B70470843002010B5404B5E
:10994000D3F8002186B04AB33E4C0022C3F8002170
:10995000A27CD3F800010190D34303F0010304EB90
:10996000830101984968002954D0607C00210228B5
:109970008DF81410E1745ED004EB8202A374506879
:1099800051600122049023688DF80C2003A89847A9
:10999000637C022B06D10123637403E0D3F8041126
:1099A00079B9284C237D53B10023012122688DF819
:1099B0000C1004938DF8143003A82375904706B05B
:1099C00010BDC3F80421D3F804111E4C0291029972
:1099D000C3F80025A37C627404EB83018DF8142086
:1099E00048688DF80C2028B12368049003A84A60C9
:1099F0009847A37CDB4303F0010304EB83035A681D
:109A00002AB1002058602168049203A888470023E7
:109A1000A374C7E7617C0229A7D0E37C002BB7D1F0
:109A2000012221688DF80C3004938DF8142003A8CE
:109A3000E2748847ACE7012363740846A1E700BFDE
:109A400000D0014034430020444A137C002B7FD1D6
:109A500070B4047A502C85B076D8457A502D73D8DE
:109A600011603F4953745382C2E901334368C1F81E
:109A70000435437890F800C05B000CF0010C03F053
:109A8000020343EA0C03C1F80835C1F81845C1F8D0
:109A90001C5585781F2D8BBF05F01F042C463149BE
:109AA0004FF0A04104F5E073032641F82360012341
:109AB000A340C1F80C35C478294B1F2C8BBF04F090
:109AC0001F0CA446274E4FF0A0460CF5E07C002169
:109AD00046F82C10C3F84055C3F84445C3F80011AC
:109AE000D3F800410394039CC3F80811D3F808414C
:109AF0000294029CC3F80411D3F8041101910321CC
:109B0000019CC3F80413837A072B08D8EC21194170
:109B1000C90704D514495B01DBB281F81D33124833
:109B200090F81D13EC2349090B41DB0706D50F4BB9
:109B3000996879B1196841F0005119600C48012306
:109B4000137405B070BC70470A4805B070BC70470C
:109B5000094870474FF000530360EFE7344300209B
:109B600000D001400003005000E100E070510020EF
:109B70000000AD0B0400AD0B0500AD0B064B074814
:109B800000214FF00042C3F800150174C3F84025CE
:109B9000C3F84425704700BF00D001403443002083
:109BA0000A4B5A7C22B15B7C012B0CD008487047D1
:109BB000084A4FF0020C01204FF0005183F811C009
:109BC0001875C2F800110448704700BF34430020E4
:109BD0000B00AD0B00E100E00000AD0B314B1A7C37
:109BE000002A32D05A7C032A56D000282BD00A04EF
:109BF00029D430B42C4CA26882B0002A42D022680A
:109C000022F0005222605D7C9A7C022D1ABFD24362
:109C100002F00102002203EB820CDCF80450B5B123
:109C20002248234991F81D23EC2352091341DB07F5
:109C300006D5A368002B31D0236843F0005323607E
:109C400002B030BC70471B4870471B48704703EB9D
:109C50004202CCF804009181184AC2F86005C2F8AB
:109C60006415197C02290BD0022119740123C2F852
:109C70000035C2F80051D2F800110191019913602A
:109C80000F48CEE70A4A4FF00055C2F88050BFF3A4
:109C90004F8FBFF36F8FB6E7044870474FF0005304
:109CA0000B60CDE734430020705100200B00AD0B5A
:109CB00000E100E00400AD0B0500AD0B00D0014059
:109CC0000000AD0B0C4B5A7C012AD1B20DD05A7C4E
:109CD00022B15A7C022A01D0084870470849094835
:109CE0000022C1F800255A747047054A19740320F0
:109CF0005874044851607047344300200B00AD0B8A
:109D000000D001400000AD0B074B1A7852B9074A4A
:109D1000116019B1064A0121C2F804130122054855
:109D20001A70704704487047504300204C4300208D
:109D300000C000400000AD0B0C00AD0B0549064B08
:109D4000096801225A6009B1C3F80823034B0022B5
:109D50001A7070474C43002000C000405043002060
:109D600000EB800000EB8000704700BF30B5144D61
:109D70000023C5F8003183B0D5F800310093114BB2
:109D800000991B6801222A6013B10F4803B030BD4F
:109D90000A24D5F8003104204BB941F06FF8013C9A
:109DA000F7D10A48064B01225A6003B030BD0023A8
:109DB000C5F80031D5F800310193019B0248F1E765
:109DC00000C000404C4300200000AD0B0100AD0B73
:109DD000084B094A0120002182B012685860C3F87C
:109DE0000011D3F8001101910199D3F8080502B0D0
:109DF000104700BF00C000404C4300201F282DE941
:109E0000F84386BF00F01F00254E4FF0A0461F29E3
:109E100089464FF0010586BF01F01F09DFF88080F9
:109E20004FF0A048854009F5E07300F5E070012788
:109E300040F20D6207FA09F7C6F80855C8F8087528
:109E400046F8202048F82320042041F017F8092480
:109E5000D8F810351F424FF004000CD1C6F80C554D
:109E600041F00CF80420C6F8085541F007F8631ECD
:109E700013F0FF04ECD1C8F80C75042040F0FEFF8D
:109E80000420C8F8087540F0F9FFD8F810350548E7
:109E900023FA09F303F00103C01ABDE8F88300BFF9
:109EA000000300500100AD0B03464FF48072002107
:109EB000502000F0F9BA00BF00B5422383B0CDE9CD
:109EC0000030002201230221602000F013FB03B0C8
:109ED0005DF804FB10B5AA2290F8F730044604217F
:109EE000602000F035FB00B110BD94F8F61094F836
:109EF000F53003EB01239BB2BDE81040552243F43B
:109F000080630321602000F023BB00BFF0B52DED7E
:109F1000048B85B001230DF10E06CDE90036044611
:109F20000D46002392220221602000F0E3FA18B9C6
:109F3000BDF80E00C0F30110B4F8DC2094F8D23064
:109F4000DFEDAF7ADFEDAE5A06EE902AF8EEE66A64
:109F5000C0F10300F4EEE76A00EB131203F00F0107
:109F6000B4F8DE30F1EE10FAC8BFDFEDA67A07EEE6
:109F7000103A4FF0010303FA02F3C8BF76EEE76A26
:109F8000B8EEC77A07EE903AB4EEE57AF8EEE77AE3
:109F9000F1EE10FA01F10A0186EEA76A08444FF0CB
:109FA000010303FA00F3B4F9DA1029804FF06000DE
:109FB000C8BFDFED947A85ED016AC8BF37EE677AD6
:109FC00007EE903AF8EEE77AC7EE276A9FED8C7AB3
:109FD000C5ED026A94F8D83007EE903AFAEEED7AC1
:109FE000C5ED037AB4F8E63007EE903AF8EEE77A7A
:109FF000F4EEC77AF1EE10FAC4BF9FED827A77EEE5
:10A00000C77A9FED817A67EE877AC5ED047A94F876
:10A01000C42094F8C030019607EE902A03F00F0395
:10A020001206B8EE677A4FF0010248BFDFED777A8B
:10A03000009203F1080302FA03F348BF37EE677A90
:10A0400007EE903AF8EEE77A0023C7EE276A9222ED
:10A05000C5ED056A94F8E21008EE101A94F8E310C2
:10A0600009EE101A022100F045FAB8EE488AB8EE5F
:10A07000499A074618B9BDF80E70C7F30117B4F82E
:10A08000E030F0EE480AB0EE000A08EE903A4EF0EA
:10A09000DBFEF8EEE88AB0EE408AF0EE490AB0EE58
:10A0A000000A4EF0D1FE88EE886AC7F10302D2B2F0
:10A0B0000123934004F1BF0105F1180207EE903A25
:10A0C000F8EEE76A04F17F0313F8010F07EE100AB8
:10A0D000B8EE477A8B42C7EE007A77EE867A87EE43
:10A0E000A67AA2EC017AEFD10196B4F8D63007EE49
:10A0F000903AF8EEE77A922287EE887A0221602081
:10A10000C7EE267AC5EDC67A94F8D96006F00F033B
:10A1100008EE103A012300930023B8EEC88A3609EE
:10A1200000F0E8F918B9BDF80E00C0F30110C0F155
:10A130000300C7B207EE907AF8EEE70AB0EE000A25
:10A1400070EE880A4EF080FEB4F9D0209FED2F5AB1
:10A150000123BB4005EE902A07EE903AF8EEE55A4F
:10A16000B8EEE76A621E05F58C7C04F13F0012F838
:10A17000013F92F84010B34007EE903A07EE101AF4
:10A18000F8EEE77AB8EE477A77EEA57A11F0800F0D
:10A1900018BF37EE457AC7EE866A8242C7EE007A6C
:10A1A000ECEC016ACCED3F7AE1D1B4F8D3309FED0D
:10A1B000147A07EE903AF8EEE77A94F8D530F4EE98
:10A1C000C77AF1EE10FAC4BF9FED0E7A77EEC77A28
:10A1D0000020C7EE866A07EE903A1B06F8EE677A13
:10A1E00048BF9FED0A7AC5EDC76A48BF77EEC77AC8
:10A1F00087EE807A85EDC87A05B0BDEC048BF0BDA2
:10A2000000FEFF46000080470000803500008043CC
:10A2100010B584B00DF10E020123CDE900320446E1
:10A22000002392220221602000F064F908B104B0FA
:10A2300010BDBDF80E304FEA041C23F030030CF0C3
:10A24000300C9BB243EA0C0355220321602000F03E
:10A250007FF904B010BD00BF10B584B00DF10E023F
:10A260000123CDE90032044600239222022160201E
:10A2700000F040F908B104B010BDBDF80E3023F075
:10A280000F0304F00F049BB22343552203216020E7
:10A2900000F05EF904B010BD08B5B0F8803007EEEC
:10A2A000903A1B04F8EE676AB1F9003044BFDFED65
:10A2B000187A76EEE76A07EE903A2DED028BF8EE0B
:10A2C000E77A91ED028AD1ED018AB1EE007A77EE5C
:10A2D000E67A27EE487A28EEA80AA7EE870AB5EEB6
:10A2E000400AF1EE10FA0ED4F1EEC07A77EEE87A79
:10A2F00038EE088AB3EE097A87EE880ABDEC028B45
:10A3000030EE070A08BD4FF039FCF0EE407AEDE779
:10A31000000080472DE9F0412DED0A8B0D460646E1
:10A32000F0EE40AAF0EE608A1746FFF7B5FFDFEDCA
:10A33000597AB6F88230DFED58BA9FED56AA78EE1A
:10A34000A78A70EE277A68EEA88A67EEA77A68EE89
:10A35000A88A1A04B0EE687AA7EEE77AA6F1020698
:10A3600005F1180407EE903AB8EE67BAC7EE2A7AFC
:10A3700005F58C7895EDC87A78EEE78A44BFDFED75
:10A38000467A3BEE67BAF3EE097A30EE679AD5ED7E
:10A39000C77AE7EE097AF7EE009A3BEE67BA36F82D
:10A3A000023F94ED807AD4ED406A95ED036AD5EDD5
:10A3B000C65A07EE903AE9EE076A1B0404F104045A
:10A3C000F8EE677A14ED017A48BF77EEEB7AB0EEDB
:10A3D000698A77EEE67AD5ED046AE6EE4B7AA6EE68
:10A3E000657A87EEAACAA9EE268A28EE078AB0EE19
:10A3F0004C7AA8EE887A68EE087A67EE887A67EE7B
:10A40000877AF5EE407AF1EE10FA2ED4B1EEE70A33
:10A41000B5EE400AF1EE10FA36D4F1EEC06A95EDD1
:10A42000057AF0EE697AE7EE4A7A67EE887AE7EE27
:10A43000267A8CEE270A70EE287AF5EE407AF1EE55
:10A4400010FA1CD4B1EEE70AB5EE400AF1EE10FAAC
:10A4500010D4F1EEC07AA04577EECA7AE7EC017A23
:10A460009DD1BDEC0A8BBDE8F081B0EE670A4FF0DC
:10A4700085FBCDE74FF082FBF0EE407AEBE7B0EEE4
:10A48000670A4FF07BFBDFE74FF078FBF0EE406AA6
:10A49000C5E700BF3393884300008047014B186035
:10A4A000704700BF54430020F0B585B04400104E03
:10A4B0008DF80F1002210091E4B217461D46306856
:10A4C00001230DF10F0221461CF0CCFD68B90123D8
:10A4D000306800932A463B4621461CF0A3FD003815
:10A4E00018BF0120404205B0F0BD4FF0FF30FAE741
:10A4F0005443002070B5400084B0C4B2002061F322
:10A50000070062F30F209DF82050104E63F31740B0
:10A51000022365F31F60009303900423306803AAAD
:10A5200021461CF09FFD70B901233068099A009301
:10A53000214605FA03F31CF075FD003818BF012011
:10A54000404204B070BD4FF0FF30FAE754430020A2
:10A5500010B55FFA83FC8E4600246EF307044100B9
:10A56000ACEB020084B060F30F240D48C2EB132261
:10A570006CF317444FEA132C012362F31F64006845
:10A58000009301F0FE01052302AA02948DF80CC08D
:10A590001CF068FD003818BF0120404204B010BD17
:10A5A000544300202DE9F04F2DED068BB0F84030DC
:10A5B000ADF6045D1A0B03F00F05C3F3031AC3F3E2
:10A5C0000323049302F11E03044609EE903A30F887
:10A5D000423F05938B4608AA04F14E0130F8023F32
:10A5E000103203F00F0642F8106CC3F3031642F862
:10A5F0000C6C8842C3F303264FEA133342F8086C0D
:10A6000042F8043CEAD107A80DF17C0E034653F84A
:10A61000042F072AC4BF103A1A609E45F7D104F1EF
:10A620005E0720AA31F8023F103203F00F0642F80D
:10A63000106CC3F3031642F80C6C8F42C3F303266D
:10A640004FEA133342F8086C42F8043CEAD11FABDE
:10A650003FA953F8042F072AC4BF103A1A60994241
:10A66000F7D10123AB4007EE903A0BF580574FF03E
:10A67000000CF8EE699ADFED58AA9FED58AACDF8C4
:10A6800018E0B8EEE79AB84604F17E010DF580793E
:10A6900062465F4650F8046F049B03909E40059B02
:10A6A000CDE901211E4440AB03EB820B07934346E7
:10A6B0005D46F3EE0F8A20AC88469B4638F8023F91
:10A6C000C3F3051307EE903A54F8043BF8EEE77A2B
:10A6D00003FA0AF33344F4EEE87A08EE103AF1EEA6
:10A6E00010FAC8BF77EEEA7AB8EEC88AF0EE690AC7
:10A6F000A9EE278AB0EE000A4EF0A6FBC8EE007A5B
:10A700004C45DBED946ADBED955A97ED067A76EED3
:10A71000A56AB6EE006A27EE667AE7EE067A8AEE5A
:10A72000277AA5EC017AC9D1DDE901210398069BBE
:10A730008342D84601F1400102F12002AAD1079AD2
:10A74000DDED407ABB4641AB0DF55064B3EC017AC8
:10A75000B4EE677AF1EE10FAC8BFF0EE477AA34282
:10A76000F4D19FED1F7AF4EEC77AF1EE10FA2ED5F0
:10A77000002677EEA77A0136F4EEC77AF1EE10FAEA
:10A78000F6B2F6D407EE906AF8EE678A0BF1480548
:10A79000B6EE009A1746F0EE680AB0EE000AB7EC83
:10A7A000018A4EF051FBF0EE497AE8EE007AA742BA
:10A7B000FCEEE77A17EE903A25F8023FEBD18BF8E2
:10A7C0004A660DF6045DBDEC068BBDE8F08FDFED4B
:10A7D000058A0026DAE700BF00008042BD378635D3
:10A7E000CDFEFF46000000002DE9F04F2DED068B59
:10A7F0000446ADF6144D94F96D30B0F86E00B4F81F
:10A800006C500191002263F30702010A61F30F22E9
:10A8100065F3174208EE103A03ADB4F8703060F3F8
:10A820001F622A6003F00F02C3F30313083307EE1D
:10A83000903A01239340F8EE678A07EE903A04AE0F
:10A84000B8EEE79AF0EE089AB2EE00AABE34B0462F
:10A850000027A4F1400B07F1010AC14602E0EB56C4
:10A8600008EE103A3BF8023FC3F3420307EE903A7A
:10A87000F8EEE77AB8EEC88AF4EEE97AF1EE10FA6B
:10A88000C8BF77EECA7AF0EE680AA9EE278AB0EE62
:10A89000000A4EF0D9FAC8EE007ACAF340110AF065
:10A8A00001035C4503EB41030AF1010AE9EC017A7B
:10A8B000D5D12037B7F5407F04F1400408F1800876
:10A8C00006D0C7F3401315F9133008EE103AC0E76D
:10A8D0009DED047A05ABB0EEC77A0DF54164F3EC5B
:10A8E000017AF0EEE77AF4EE477AF1EE10FAC8BF9B
:10A8F000B0EE677AA342F2D1DFED217AB4EEE77AC7
:10A90000F1EE10FA38D5002737EE077A0137B4EEAA
:10A91000E77AF1EE10FAFFB2F6D407EE907AF8EE8D
:10A92000678A019BB6EE009A03F64B45F0EE680A83
:10A93000B0EE000AB6EC018A4EF086FA28EE000A64
:10A94000B5EEC00AF1EE10FA4CBF30EE490A30EE17
:10A95000090AA642FDEEC07ACDED007A9DF90030DD
:10A9600005F8013FE2D1019B83F84C7F0DF6144DB1
:10A97000BDEC068BBDE8F08FDFED028A0027D0E743
:10A980009A997D42000000002DE9F04F2DED048BD7
:10A99000B0F86830ADF6144D1D0BB3F5004F03AFA2
:10A9A00028BF103D01911C05C3F3032148BF103996
:10A9B0000246B9701806C3F3031148BF1039797005
:10A9C00003F00F011B07B2F87030C3F3032307EE47
:10A9D000903A6DB248BF1039B8EE678A3D70F97091
:10A9E0000DF1100824AE0DF5496A4FF00009A6F1EB
:10A9F000800B09F1010400E0FD56F0EE480AB0EECC
:10AA0000000A4EF021FA07EE905AB8EEE77AC4F346
:10AA10004011C7EE007A04F0010303EB4103013457
:10AA2000EBEC017A5E45E7D18036B24509F12009A9
:10AA300004D0C9F3401317F91350D8E79DED047AF9
:10AA400005ABB0EEC77A0DF54164F3EC017AF0EE98
:10AA5000E77AF4EE477AF1EE10FAC8BFB0EE677A03
:10AA60009C42F2D1DFED227AB4EEE77AF1EE10FAF1
:10AA70003AD5002637EE077A0136B4EEE77AF1EEE2
:10AA800010FAF6B2F6D407EE906AF8EE678A019BE8
:10AA9000B6EE009A03F64C75F0EE680AB0EE000AC6
:10AAA000B8EC018A4EF0D0F928EE000AB5EEC00AE3
:10AAB000F1EE10FA4CBF30EE490A30EE090A444577
:10AAC000FDEEC07ACDED007A9DF9003005F8013F2A
:10AAD000E2D1019B03F5805B8BF84D620DF6144DBE
:10AAE000BDEC048BBDE8F08FDFED028A0026CEE7D7
:10AAF0009A997D42000000000B464FF450724FF4CB
:10AB0000105100F099BF00BF10B5302282B04FF451
:10AB10000041044600F0C2FF421C04D10DE0BDF824
:10AB200006301B0709D40DF1060301224FF4004142
:10AB3000204600F081FF0028F1D002B010BD00BF18
:10AB400030B50546A3B00C4603E0BDF80620120759
:10AB50000BD40DF1060301224FF40041284600F00A
:10AB60006BFF0028F1D023B030BD30224FF40041FC
:10AB7000284600F093FF431CF5D023464FF4407263
:10AB80004FF48061284600F057FF0028EBD102AB5C
:10AB900040224FF4E061284600F04EFF0028E2D149
:10ABA00001AB2846012248F20D0100F045FFBDF837
:10ABB0000650BDF80430A4F8803605F00105A4F86D
:10ABC00082560028CFD1BDF8083047F6FF718B427E
:10ABD00048D00DF116030BA833F8022F8A4241D05A
:10ABE0009842F9D1BDF830308B423BD0BDF83230BD
:10ABF0008B4237D0BDF834308B4233D00DF1360361
:10AC000012A847F6FF7133F8022F8A422AD08342F6
:10AC1000F9D10DF156031BA847F6FF7133F8022F47
:10AC20008A421FD09842F9D1BDF870308B4219D0BA
:10AC3000BDF872308B4215D0BDF874308B4211D004
:10AC40000DF176030DF1860047F6FF7133F8022F00
:10AC50008A4207D08342F9D1802202A904F5C0605C
:10AC60004DF049FA002347F6FF7102E00133182B3B
:10AC70000AD09A01A25A8A42F8D103F00102AA42EC
:10AC8000F4D16FF007006EE728466CE7B0F8663045
:10AC9000DFED7B6A9FED7B6ADFED7B5ADFED7B4A60
:10ACA0002DE9F04F1A0AB3F5004F28BFA2F58072C4
:10ACB00063F0FF0328BF92B25B015201A3F500537A
:10ACC0002DED048B0A804B80B0F864309A0A07EEB1
:10ACD000102AB8EEC77AF3EE0F7AB4EEE77AF1EE07
:10ACE00010FAC8BFDFED6A7AB0F86220C3F3090337
:10ACF000C8BF37EE677A07EE903AF8EEE77A038C32
:10AD00008A81F4EEE67AF1EE10FAB0F86020C8BF5E
:10AD1000DFED606A8A8203F47043C8BF77EEE67A9B
:10AD200006EE903AB0F8783027EE067ADAB2F8EE0E
:10AD3000E66A81ED017AB2EE006A07EE102AA6EE0D
:10AD4000A56AB0F87020F4EE006A67EEA67AB8EE55
:10AD5000C77ADFED516AC1ED027AB4EEE67AF1EE20
:10AD600010FAC8BFDFED497A81ED046AC8BF37EE3B
:10AD7000677ADFED4A7ADFED486ADFED475A1B0A52
:10AD800027EE277A07EE903AC2F3013381F8243098
:10AD90004FF6D872B0F87E300A64B0F87E2081EDAC
:10ADA000067AC2F30312C3F30133A1F8442003EB84
:10ADB00083030C46F8EEE77AB0F87E105B0012FBD6
:10ADC00003F2F4EEE67A92B2C1F30321A4F8442030
:10ADD00001FB0323F1EE10FA4FF4C872A4F84630D9
:10ADE000A4F84820C8BF9FED297AB0F87A20B0F8BF
:10ADF0007E10B0F87C30C8BF77EEC77A9FED287A16
:10AE00000746D0B2120A67EE877A01F00F0107EE0B
:10AE1000102ADAB21B0A06EE903A0831012305EE39
:10AE2000102AC4ED0A7A8B4007EE900AB8EEC76A82
:10AE300007EE103AF8EEE77AB8EEC55AF8EEE66A91
:10AE4000B8EEC77AC4ED0B7A84ED0C6ABFB084ED1E
:10AE50000D5A04F13003C4ED0E6A04F13C02F4EE25
:10AE6000E57AF1EE10FAC8BF77EEE47A9A42C7EEBF
:10AE7000876A43ED016A15D0F3EC017AEFE700BF72
:10AE80000080FF43000080390000803800008043CC
:10AE900000008042000080440000FE420000003DAF
:10AEA00000000039B7F84030B7F87410D34AE263B5
:10AEB0001B0B1B33880500EE903AC1F3090348BF12
:10AEC000A3F580634FEA912248BF9BB2B1F5004FD2
:10AED00024BF403A92B2B7F87260DFEDC97A0FFA38
:10AEE00083F813441DB2C6F3090308EE103AB8EE16
:10AEF000C88AF8EE600AB4EEE78AF1EE10FAC8BF2D
:10AF0000DFEDC07A4FEA9626B0EE000AC8BF38EEF1
:10AF1000678A4DF099FF07EE906AF8EEE77AB3EE94
:10AF20000F7AF4EEC77AF1EE10FAB7F87660C8BF80
:10AF30009FEDB57AB7F87090F3B288EE009A4FEAB9
:10AF40001626C8BF77EEC77A08EE103A9FEDAF7AA3
:10AF5000F7EE008AE7EE878AC9F303130833DFEDC3
:10AF6000AC7AB8EEC88A00EE903AB4EEE78AF1EE19
:10AF700010FAC8BFDFEDA77AF8EE600AB0EE000A5B
:10AF8000C8BF38EE678A4DF05FFF88EE007AC9F3DC
:10AF9000032304F5805906EE906ADFED9D7A84ED77
:10AFA000087AB8EEE68A00EE903AB4EEE78AF1EE5F
:10AFB00010FAC8BFDFED977AF8EE600AB0EE000A2B
:10AFC000C8BF38EE678A4DF03FFFC8EE007A2146D1
:10AFD000384669EE288AC4ED077AA9F85882A9F89C
:10AFE0005A5289ED949AC9ED958AFFF7DBFA398CAC
:10AFF000384601F00F0330F8228F0193C1F3031B91
:10B0000007F12E05C1F3032106AA30F8023F1032E2
:10B0100003F00F0642F8106CC3F3031642F80C6CF1
:10B020008542C3F303264FEA133342F8086C42F813
:10B03000043CEAD105AA0DF1740E134653F8040F2F
:10B040000728C4BF103818609E45F7D107F13E06A7
:10B050001EA8944635F8023F103003F00F0240F866
:10B06000102CC3F3031240F80C2CAE42C3F303229E
:10B070004FEA133340F8082C40F8043CEAD162460A
:10B080001DAB3DAD53F8040F0728C4BF103818603E
:10B090009D42F7D107F17E053EABCDE9023504F2C2
:10B0A0004A6C28460497A24652F8043F8B4043441A
:10B0B0009BB266461EAC0546009335F8027FB7F595
:10B0C000004F4FEA9723A3F1400738BF1FB2019BFF
:10B0D00028BF3FB207FA03F354F8047B0593009BA3
:10B0E00007FA0BF71F44059B1F44029B26F8027FBB
:10B0F0009C42E2D1964500F140000CF1400CD3D1C6
:10B10000DDE9035751463846FFF76EFB5146384696
:10B11000FFF73AFCB7F86A30BA8A03F03F0107EE4E
:10B12000901AF8EEE77AB3EE0F7AF4EEC77AF1EE02
:10B1300010FAC4BF9FED347A77EEC77A9FED367A66
:10B14000C3F3841167EE876A07EE101AB8EEC77A68
:10B15000B2EE0E6AB4EEC67AF1EE10FAC8BFDFEDB9
:10B160002F7A4FEAD323C8BF37EE677A07EE903ABB
:10B17000F8EEE77AB2EE0E6AF4EEC67AF1EE10FA65
:10B18000C4BF9FED266A77EEC67A6FEA1212F6EE1A
:10B19000005AB4EE006A41F2682302F0800227EE02
:10B1A000257A67EE867A54468AF82520E6184FF00D
:10B1B000FF32C9ED976A89ED987AC9ED997A4AF814
:10B1C000032000237260B260F260326118461946B3
:10B1D00040F2FF2835F8022F01F6341E01F1010C70
:10B1E0009FB2EAB9474524F81E701FFA8CF132D09D
:10B1F000052900F0BA800133ECE700BF17B751B959
:10B200000080FF4300008044000080420000003CBA
:10B210000000FE42000080430000803D000000422C
:10B2200000F6381CD20704EB4C0C00F1010E10D5CF
:10B230004345ACF802701FFA8EF003F1010315D0FC
:10B240000528C7D16FF003003FB0BDEC048BBDE80B
:10B25000F08F4745CFD1052900F087800B18042BCC
:10B2600000F3868041B978BB0020EDE70528E9D0DE
:10B270004318042B7CDC39B301F1010804F5935E1B
:10B280001FFA88F80EF1060E4FF0010C8C4562464D
:10B2900015DA3EF81C9036F81230A9EB030303F1DF
:10B2A0002105022D03F1010702F10102A3F11F03A1
:10B2B00054D9022F52D9022B50D98A42EBDB0CF120
:10B2C000010CE045E2D148B304F5935C04F59357D3
:10B2D00001220CF1100C12378242154617DA3CF8A5
:10B2E00012E037F81530AEEB030303F12109B9F191
:10B2F000020F03F1010805F10105A3F11F032DD988
:10B30000B8F1020F2AD9022B28D98542E9DB013294
:10B31000531E9BB29842DFD80029A5D004F5935460
:10B32000103406EB410104EB400520B3308822467F
:10B3300032F8023FC31A03F1210CBCF1020F03F1F2
:10B340000107A3F11F0309D9022F07D9022B05D941
:10B35000AA42EDD102368E42E8D185E76FF00500B2
:10B360003FB0BDEC048BBDE8F08F6FF002006BE7DF
:10B370006FF0040068E702368E42FCD174E700BF2C
:10B3800030B583B00C460DF10603012248F20D01E1
:10B39000054600F051FB08B103B030BDBDF80620F2
:10B3A000A10222F4406201F4406192B20A432846AD
:10B3B00048F20D0100F072FB03B030BD30B583B030
:10B3C0000C460DF10603012248F20D01054600F07E
:10B3D00033FB08B103B030BDBDF80620E10122F413
:10B3E000607201F4607192B20A43284648F20D017E
:10B3F00000F054FB03B030BD38B5B0F8543607EE5A
:10B40000903A1B0491F8243000EE903A2DED028B17
:10B41000B0F88036F8EE678A48BFDFED187AF8EEAC
:10B42000600AB0EE000A48BF78EEE78A0C46C3F324
:10B4300081254DF009FD07EE905AB0EE408AF8EEF6
:10B44000E70AB0EE000A4DF0FFFC88EE006AB4F99E
:10B45000023007EE903AB4F90030DFED096AF8EEF9
:10B46000E77A07EE103AD8EE867ABDEC028BB8EE9A
:10B47000C77A87EE870A30EE260A38BD000080477B
:10B480003333534038B505460C46FFF7B5FFB5F8E2
:10B49000403694ED046AD4ED015A94ED025A07EE59
:10B4A000903A1A04B8EE677AB5F8003644BFDFED7B
:10B4B000177A37EE677A07EE903A1B0448BFDFED44
:10B4C000136AA389F8EE677A48BF77EEE67ADFED74
:10B4D000106AE6EE077A30EE660A87EE276AF7EE24
:10B4E000006AE5EE806ADFED0B7A26EE276A07EE4A
:10B4F000103AC6EE267AB8EEC77AF3EE095A77EE1E
:10B50000C77A87EE850A30EE250A38BD00008047ED
:10B5100033335340000080482DE9F04F2DED108B60
:10B5200089B0884681461746F0EE608AB0F882A658
:10B53000F0EE40AAFFF760FF48464146B0EE40AA51
:10B54000FFF7A0FFDFED7A7A98F84C3F78EEA78AF4
:10B5500070EE277A68EEA88A67EEA77A68EEA88A66
:10B5600000EE903AB0EE687AA7EEE77AF8EE600A5D
:10B57000C7EE2A7AF0EE409AB0EE000A78EEE78A3B
:10B580004DF062FC08F58051B0EE40BA91F84D32B2
:10B59000009100EE903AB0EE000AF8EE600A4DF02D
:10B5A00053FC98F84A3600EE903AF0EE40BAF8EEC6
:10B5B000600AB0EE000A4DF047FCF7EE00EA9FED9E
:10B5C0005D6AD8ED0B5AB8F9463098ED0D7AD8ED92
:10B5D0000C6AB9F880B60099D8ED074AF0EE6E7A99
:10B5E000E5EE867A4FEA6B1B0BF080000FEE103A07
:10B5F000B8F9443000901FEE102ACEEEA7DA07EE1D
:10B60000903AD31AB8EEE7DA07EE903AB9F8143662
:10B61000B9F81026F8EEE77AF0EE6EFAE7EE27EAD0
:10B6200013F4004F07EE903AB8F91430B8EE677A89
:10B630001CBFDFED417A37EE677A07EE903AF8EEFD
:10B64000E77AE6EE8DFA1404B9F8503648BF9FED5C
:10B650003A6AC7EE876A07EE902AF8EE677A07EE35
:10B66000103A48BF77EEC67A1804B8EE477A48BF5A
:10B670009FED316AB1F95832009A48BF37EE467AE9
:10B680009FED2E6A26EE875AB3EE097A79EEC79AB5
:10B690003AEE46AA98ED087AB7EE006AF0EE465AFE
:10B6A000E7EE295A07EE103AA4EE8A6AB1F95A3247
:10B6B000B8EEC77A66EEA77A25EEC77A6FEEAEEAE5
:10B6C000E6EE077AB0EE40CACDED067A07EE903A84
:10B6D00098F8253001939342F8EEE77A00F0508114
:10B6E00091ED977A77EE877AB0EE457A67EEA57A94
:10B6F000A6EE677ACDF808904FFA8BFBF0EE667AEB
:10B70000DFED0FCA9FED0A9A9FED0BEA8DED077AE8
:10B71000F0EE6E6A08F14A06F0EE6DEA08F64C4566
:10B72000F0EE4DDA00248946B0EE67DA14E000BF8F
:10B730003393884300002042000080473333534056
:10B74000BD378635B4F5407F07F1040706F10206E0
:10B7500005F1010500F00F81C4F34013BBF1000FA8
:10B7600020461A46BCBF00F001025A40924504F13F
:10B770000104E7D1029A023A32F8142007EE902A27
:10B78000120495F9002007EE102AB8EEC77A95F951
:10B79000012387EE0B5A07EE102AB8EE676AB8EE5F
:10B7A000C77AF7EE007AF0EE675AE9EE855AB6F9F5
:10B7B000022687EE2B5A07EE102AEAEE057ADDE91B
:10B7C0000012B8EEC77A48BF36EE4E6A27EE257AE9
:10B7D0008A4267EEC77AE6EE0D7A2BD000F1030CB1
:10B7E0005B005A1EBCF1000F00F1020E07EE102A9A
:10B7F0004FEAAE0E6246B8BF821DAEEBA2021CEA53
:10B80000200C38BF844602EBA402A2EBAC02C3F1C9
:10B81000010399ED996AB8EEC77A12FB03F252B2AE
:10B82000E6EE077A07EE102A99ED986AB8EEC77A25
:10B83000E6EE477A08AB03EB8A0313ED026A33881E
:10B84000D8ED065A98ED0A5A07EE103AE5EEC67A98
:10B85000B8EEC77A2CEE2C6AB7EE008AC6EE075A0D
:10B8600087EEAA6AA9EE858AB0EE467A28EE258A86
:10B87000A8EE887A68EE087A67EE887A67EE877AAB
:10B88000F5EE407AF1EE10FA00F1C280B1EEE70A6F
:10B89000B5EE400AF1EE10FA00F1AD80B1EEC07ADB
:10B8A000D8ED0C5AF7EE007AE5EEC97A67EE887AA1
:10B8B000E5EE877A86EE270A70EE287AF5EE407A72
:10B8C000F1EE10FA00F18680B1EEE70AB5EE400A1B
:10B8D000F1EE10FA6DD4F1EEC07AB8F9423007EE0D
:10B8E000103A77EEC97AB8EEC77AB4EEE77AF1EE9D
:10B8F00010FA28DDB8F94030D8ED0B5A07EE103AAF
:10B9000028EE2E8AB8EEC77A77EEC77AB7EE007ABD
:10B91000A7EEA57A67EE087A86EE270A70EE287AF7
:10B92000F5EE407AF1EE10FA3AD4B1EEE70AB5EE50
:10B93000400AF1EE10FA2AD4F1EEC07A77EEC97A15
:10B94000C7ED007AFEE6F4EEE7DAF1EE10FADBDCA2
:10B95000B8EECF7AB4EEE77AF1EE10FA06DD28EE13
:10B960002F8AD8ED0D5AB0EE6D7ACDE728EE268AF3
:10B97000D8ED0E5AC8E709B0BDEC108BBDE8F08FCA
:10B9800065EEA75AB0EE457AA6EE657AB2E6CDED41
:10B99000036A4EF0F3F8DDED036AF0EE407ACDE78E
:10B9A000B0EE670ACDED036A4EF0E8F8DDED036A0C
:10B9B000BDE7CDED056A8DED046ACDED035A4EF07D
:10B9C000DDF8DDED056A9DED046ADDED035AF0EE6C
:10B9D000407A82E7B0EE670ACDED056A8DED046A24
:10B9E000CDED035A4EF0CAF8DDED056A9DED046A0F
:10B9F000DDED035A6AE7CDED046A8DED036A4EF082
:10BA0000BDF8DDED046A9DED036AB0EE407A47E7CC
:10BA1000B0EE670ACDED046A8DED036A4EF0AEF824
:10BA2000DDED046A9DED036A32E700BF014B18604B
:10BA3000704700BF584300202DE9F04184B0460014
:10BA4000154F1C46022349BAF6B200939046ADF852
:10BA50000E1038680DF10E0231461BF003FBC0B921
:10BA600001234FEA48053868009331462B462246A9
:10BA70001BF0D8FA68B9B8F1000F07D02246631955
:10BA8000118849BA22F8021B9A42F9D104B0BDE8E4
:10BA9000F0814FF0FF30F9E75843002030B585B012
:10BAA00044000423104D009352BA49BAE4B2ADF8F1
:10BAB0000C20ADF80E10286802230DF10E0221466D
:10BAC0001BF0D0FA68B901232868009303AA022367
:10BAD00021461BF0C7FA003818BF0120404205B0CC
